:020000040800F2
:1000000030050020C5000008CD000008CF00000822
:1000100000000000000000000000000000000000E0
:10002000000000000000000000000000D1000008F7
:100030000000000000000000D30000084515000883
:10004000D700000800000000D7000008D700000813
:10005000D7000008D7000008D7000008D700000824
:1000600000000000D7000008D7000008D7000008F3
:10007000D7000008D7000008D700000800000000E3
:10008000D70000080000000000000000D7000008B2
:1000900000000000D7000008D70000085110000839
:1000A000000000003515000800000000D70000081F
:1000B0000348854600F02AF80048004795190008D3
:1000C000300500200448804704480047FEE7FEE76B
:1000D000FEE7FEE7FEE7FEE7B1150008B100000805
:1000E00030B50B46014600202022012409E00D46D0
:1000F000D5409D4205D31D469540491B2546954058
:1001000040191546521E002DF1DC30BD064C01256C
:10011000064E05E0E36807CC2B430C3C98471034AF
:10012000B442F7D3FFF7C8FFF4190008141A000807
:10013000F8B500238DE001249C40A44622407DD0E8
:100140004C68022C01D0122C0CD1DC08A40027181A
:100150003C6A5D07ED0E0F26AE40B4430E69AE401B
:1001600026433E6205685E000324B4400F79A54330
:10017000BF07BF0FB7402F4307604D68012D05D063
:10018000022D03D0112D01D0122D0ED18568CF681C
:10019000A543B7402F43876047686546AF430D7955
:1001A000ED06ED0F9D403D434560C568A5438C6855
:1001B000B4402C43C4604C68E40049D5284CA56980
:1001C00001263543A561A4699D0834400094254C5F
:1001D000AD002F19BC689D072E0F0F25B540AC430D
:1001E0000925ED06A84201D100250FE01E4DA842C9
:1001F00001D101250AE01D4DA84201D1022505E0EB
:100200001B4DA84201D1032500E00525B54025433B
:10021000BD60184C25684E689543F60300D515431C
:10022000256065684E689543B60300D51543656043
:10023000A5684E689543F60202D500E008E0154334
:10024000A560E5684E689543B60200D51543E560A4
:100250005B1C0A681446DC4000D06CE7F8BD000067
:10026000001002400000014000040048000800485F
:10027000000C0048000401400069084000D0012043
:100280007047000001480068704700000800002027
:1002900070B502462032537D022B27D0537D122B9E
:1002A00024D0537D222B21D0537D322B1ED0537D61
:1002B000422B1BD0137D012B18D001231375022470
:1002C0005475046825689D432560046825681E03ED
:1002D000B5432560046825680D4325600068016802
:1002E0001943016053750020107570BD022070BD68
:1002F00010B501688A69D243D3050122002B08DBBF
:100300000B68DB431B0604D4836B13438363130224
:10031000CB6101688B69DB435B0509D40B68DB4368
:100320001B0605D4836B082423438363E301CB615D
:1003300001688B69DB439B0509D40B68DB431B0613
:1003400005D4836B0224234383632302CB61816B37
:100350000B23194203D035210A5400F092F810BD46
:1003600070B50546006881692C46C9438907203469
:10037000002913DA8169C94309060FD58169C94388
:1003800049060BD58169C943890607D58169C943E7
:10039000C90603D58169C943090709D401687A20D0
:1003A000884305D1607D322802D1284600F0AEFF97
:1003B00028688169C94389070FD58169C94309063E
:1003C0000BD58169C943490607D58169C9438906A7
:1003D00003D58169C943C9060CD4016872208843DA
:1003E00008D1607D122802D0607D522802D12846B3
:1003F00000F0C0FE28688169C943490713D58169A7
:10040000C94309060FD58169C94349060BD58169DE
:10041000C943890607D58169C943C90603D58169DE
:10042000C94309070AD40068C0434006C00E05D17D
:10043000607D422802D1284600F01EFF28688169AD
:10044000C94349070FD58169C94309060BD581699D
:10045000C943490607D58169C943890603D581691E
:10046000C943C9060CD401687420884308D1607D53
:10047000222802D0607D622802D1284600F0F8FDD3
:1004800070BD704770B5040006D025462035687DE4
:100490000026002802D005E0012070BD2E75204600
:1004A00000F046F802206875206801684908490094
:1004B00001600F216068090688432168086120688F
:1004C00082680121C9038A438260A068002807D09E
:1004D000E268012A01D0212189020843216888604D
:1004E000E068022802D121688002486020684168E3
:1004F0000C4A11434160616920690843A1690902FE
:1005000008432168C860216AE069084321680860DF
:100510002068026801210A430260A6636975002011
:1005200070BD000000800002704770477047704740
:1005300000B50068114987B088421DD1C0200090E5
:100540001220012101900320029104910390694639
:100550000B48FFF7EDFD0B48C269012149050A432D
:10056000C261C0690022084005900321172000F0F5
:1005700053F8172000F046F807B000BD00540040C3
:1005800000040048001002407047704702480168AC
:10059000491C0160704700000800002010B50648A3
:1005A0000168102211430160002000F007F800F0FC
:1005B00017F8002010BD00000020024010B50446CE
:1005C00000F060F97D21C900FFF78AFD00F06CFCA6
:1005D00000222146501E00F01FF8002010BD000030
:1005E00008B5074881690122114381618069104083
:1005F000002200901146501E00F00EF808BD0000C9
:1006000000100240C106C90E01208840014908605F
:100610007047000000E100E010B500F069FF10BD78
:10062000F8B5054600682D4CC00342D5216A032069
:1006300000026A680140024091423AD0E169200418
:100640000143E161E169264E014000913068A11546
:1006500008433060FFF716FE074604E0FFF712FE7E
:10066000C01B64281BD83068C005F7D5206A032753
:100670003F02226AB843012109040A432262226A26
:100680008A432262206280070ED5FFF7FBFD0646F3
:1006900007E0FFF7F7FD811B1248814201D90320D3
:1006A000F8BD206A8007F4D5206A6968B84308431A
:1006B00020622878C00705D0206BA96880088000D8
:1006C000084320632878800605D5206B10218843D5
:1006D000E968084320630020F8BD000000100240D4
:1006E0000070004088130000F8B5054662480E46C9
:1006F0000068F021C007C00F604CB04254D25E4881
:10070000026852085200324302600068C007C00FFE
:10071000B0426ED12878800704D560688843A96804
:10072000084360602878C00728D06868012814D082
:100730002168022814D0890700295ADA61688908DB
:10074000890001436160FFF79DFD06466868012846
:100750000ED04B4F022817D021E021688903EBE728
:100760008901E9E7FFF78EFD801BB84201D961E0FE
:10077000434F60680007800F0128F3D16DE0FFF759
:1007800081FD801BB84255D860680007800F0228A1
:10079000F5D162E0FFF776FD801BB8424AD8606869
:1007A0000007800FF6D158E02878800704D56068EC
:1007B0008843A968084360602878C00740D068680B
:1007C000012813D02168022814D08907002942DAB1
:1007D00061688908890001436160FFF753FD07469E
:1007E000686801280ED0022818D025E02168890306
:1007F000ECE730E08901E9E7FFF744FDC11B204841
:10080000814217D860680007800F0128F4D117E0F3
:10081000FFF738FDC11B1A4881420BD860680007FA
:10082000800F0228F4D10BE0FFF72CFDC11B144808
:10083000814201D90320F8BD60680007800FF3D121
:100840000D48016849084900314301600068C0074C
:10085000C00FB04201D00120F8BD2878400706D56E
:100860006068072109028843E96808436060002046
:10087000FFF7A4FE0020F8BD002002400010024057
:100880008813000010B500F021F805494968054AB1
:100890000906090F515CC8400349086010BD0000FB
:1008A00000100240E41900080C00002010B5FFF70A
:1008B000E9FF04494968044A4905490F515CC840A9
:1008C00010BD000000100240E419000810B513A389
:1008D0000FCB88B06C460FC414A30FCB0FC41749BD
:1008E0004A680C20134603401548042B02D0082BFD
:1008F00002D0144808B010BD93021B0F6C46E45C94
:10090000C96A04AB0907090F595CD20303D5FFF785
:10091000E7FB6043EEE70C486043EBE702030405A6
:10092000060708090A0B0C0D0E0F10100102030434
:1009300005060708090A0B0C0D0E0F1000100240E7
:1009400000366E0100127A0000093D00F8B5044639
:100950000078DF4DC0075FD068680007800F01286E
:1009600007D068680007800F022809D16868C003B3
:1009700006D5286880034FD5606800287ED04BE0FC
:10098000286801263604B04328602868B700B843B9
:100990002860FFF777FC009006E0FFF773FC0099F2
:1009A000411ACC4881426AD828688003F5D460682F
:1009B00001280AD0002801D0052808D02968284637
:1009C000B14329602968B94307E0284603E0296854
:1009D0002846394329600168314301606068002876
:1009E0000DD0FFF74FFC0646BA4F04E0FFF74AFC74
:1009F000801BB842D7D828688003F7D50CE0FFF7F2
:100A000041FC0646B34F04E0FFF73CFC801BB842B4
:100A1000C9D828688003F7D42078012780070028E8
:100A20003DDA68680007800F07D068680007800F0C
:100A3000022809D16868C00306D42868800715D544
:100A4000E06801281AD111E0E0680028286817D072
:100A500038432860FFF716FC064604E0FFF712FC57
:100A6000801B64289FD828688007F7D52868F8215C
:100A700088432169C9000843286010E025E1CCE0E3
:100A8000400840002860FFF7FDFB064604E0FFF742
:100A9000F9FB801B642886D828688007F7D4207863
:100AA000000721D5206A0028686A0ED038436862A2
:100AB000FFF7E8FB064604E0FFF7E4FB801B642831
:100AC00098D8686A8007F7D50EE040084000686251
:100AD000FFF7D8FB064604E0FFF7D4FB801B642831
:100AE00088D8686A8007F7D4207804264007002851
:100AF00066DAE969B0060143E961E96901407648CF
:100B000000910168821511430160FFF7BBFB009063
:100B100005E0FFF7B7FB0099401A64287DD86E48BE
:100B20000068C005F5D5286A400840002862286A98
:100B3000B0432862FFF7A6FB009006E0FFF7A2FB98
:100B40000099411A6348814267D8286A8007F5D422
:100B5000A06801280BD0002801D0052809D0296AF7
:100B60002846490849002962296AB14307E0284616
:100B700003E0296A284631432962016A3943016248
:100B8000A06800280ED0FFF77DFB009006E0FFF77D
:100B900079FB0099411A4F4881423ED8286A800764
:100BA000F5D50DE0FFF76EFB009006E0FFF76AFB5E
:100BB0000099411A474881422FD8286A8007F5D406
:100BC0002078C00635D5606901280CD0401D686BBF
:100BD00024D030436863686B400840006863FFF7C7
:100BE00051FB064622E0686B30436863686B38430C
:100BF0006863FFF747FB064604E0FFF743FB801BF3
:100C000064285BD8686B8007F7D5686BF821884348
:100C1000A169C900084368630BE04FE0B043686313
:100C2000F3E7FFF72FFB801B642847D8686B80072A
:100C3000F7D4606A002846D069680907890F02293D
:100C400043D0012636060228286805D0B043286024
:100C5000FFF718FB044633E0B0432860FFF712FBB0
:100C6000074604E0FFF70EFBC01B642826D828685F
:100C70008001F7D4E86A216B000900010843E862AB
:100C8000A16AE06A084369683D221204914308435F
:100C90006860286830432860FFF7F4FA044604E0EF
:100CA000FFF7F0FA001B642808D828688001F7D500
:100CB00009E0FFF7E7FA001B642801D90320F8BD1B
:100CC00028688001F5D40020F8BD0120F8BD00009F
:100CD0000010024088130000007000407047F8B513
:100CE0000268536891684C0605D4CC0703D05C06B3
:100CF00001D5C16C04E08C0704D51B0602D5016D3B
:100D00008847F8BDFF2361331942FAD003464C06E9
:100D10004033002C09DA5C7F032CF2D0046E0425EA
:100D20002C430466D468946800948D060124002D39
:100D300008DA056E25430566956800951568402616
:100D4000B5431560C90506D5016E08221143016639
:100D500001688968009101684A68E025AA434A60F1
:100D60005C77FFF7BBFFF8BDF8B5040006D0254659
:100D70004035687F0026002802D005E00120F8BD3C
:100D80002E77204600F058F802236B772068016820
:100D90004022914301600722E0681202904201D98B
:100DA000002101E0012109030F273F02B84202D0D0
:100DB000904200D0A662276B002F05D1904201D946
:100DC000236301E001202063A26860686369104327
:100DD00022691A4310430123A2695B021A4010439F
:100DE000E2691043226A1043A26A1043226810602D
:100DF000206B022804D1206802689B001A4302601D
:100E0000626B606AA36910431B0C0427E2683B40D5
:100E10001A4310430843216848602168E06A08616A
:100E20002068C169034A1140C161012026666877C4
:100E30000020F8BDFFF7000000B50068114987B039
:100E400088421DD11048826981140A4382618069F9
:100E500008400590F020009002200190002103201E
:100E600003900291049109206946C006FFF760F9DA
:100E7000002202211920FFF7CFFB1920FFF7C2FB48
:100E800007B000BD003001400010024004220449B8
:100E90000428086902D09043086170471043FBE7BB
:100EA00000E000E070470000094910B5401E88428C
:100EB00001D9012010BD074C60610321081F00F01B
:100EC00017FB0020A06107202061002010BD00005A
:100ED000FFFFFF0000E000E010B5FFF7E3FF10BDEB
:100EE00070B5040005D025466035687A002802D028
:100EF00006E0012070BD00202872204600F026F890
:100F00000220687220680168490849000160204693
:100F100000F056FC0128EDD0606A002802D020467F
:100F200000F0E0FB206841680922D2029143416051
:100F3000206881682A22914381602068016801222B
:100F400011430160204600F032FC70BD00B500681E
:100F50000E4987B0884216D10D4882690121890364
:100F60000A4382618069084005900C2000900220AD
:100F70000190012103200390029104910920694608
:100F8000C006FFF7D5F807B000BD000000380140EB
:100F900000100240FFB5054604466035687A81B00E
:100FA0000E46012802D0687A22284ED1002E1DD08C
:100FB000002A1BD0287A012847D00120287200205F
:100FC000E066687A222814D01220687227464037DB
:100FD0003A827A82788A0022401E788280212046D6
:100FE000049B00F071FC00281CD104E0012005B036
:100FF000F0BD3220E9E70120A1680003814202D15F
:101000002069002810D0216830780885761C788AFD
:101010000028DFD1002240212046049B00F054FC30
:10102000002808D00320E2E730882168C005C00D01
:101030000885B61CEBE7687A322804D00120687274
:1010400000202872D3E72220F9E70220CFE7000032
:1010500010B50648006880694005400F034802D07B
:10106000FFF746F910BDFFF77BF910BD2000002007
:10107000F8B5054604462035287D012814D0012105
:101080002975206882690026D2435207002A0DDBA9
:10109000416A606A421C62620170208D401E208598
:1010A000608D401E608560E00220F8BD8269D243F9
:1010B00013064022002B21DB218D00291AD1618DDE
:1010C000002917D040688105608D890DFF280096A2
:1010D00006D99304FF22204600F068F9FF2007E0BC
:1010E000608D0123C2B25B06204600F05FF9608D7F
:1010F00020853AE02E75A06B104332E08369DB4314
:101100005B0608D4618D0029F4D141680122920365
:101110001143416029E08269D243920617D40268E4
:10112000F4239A43026022682020D061206842683C
:101130000F4B1A40426069752E75687D6228204603
:1011400002D0FFF7F1F910E0FFF7F0F90DE0816947
:10115000C943C90609D41021C1612E75A06B0421B1
:101160000843A0632046FFF78CF92E750020F8BDD8
:1011700000E800FEF8B5054604462035287D012824
:1011800014D001212975206882690026D243920774
:10119000002A0DDB616A4A1C626209788162208D37
:1011A000401E2085608D401E608560E00220F8BDF5
:1011B0008269D24313064022002B21DB218D0029B6
:1011C0001AD1618D002917D040688105608D890D85
:1011D000FF28009606D99304FF22204600F0E6F887
:1011E000FF2007E0608D0123C2B25B06204600F0BD
:1011F000DDF8608D20853AE02E75A06B104332E05B
:101200008369DB435B0608D4618D0029F4D1416812
:10121000012292031143416029E08269D243920680
:1012200017D40268F2239A43026022682020D0611A
:10123000206842680F4B1A40426069752E75687DC0
:101240005228204602D0FFF770F910E0FFF76FF93F
:101250000DE08169C943C90609D41021C1612E7509
:10126000A06B04210843A0632046FFF70AF92E75FE
:101270000020F8BD00E800FE70B504462034217D52
:10128000012912D00122227501688B690025DB43F8
:10129000DB06002B0BDB1022CA612575816B042253
:1012A00011438163FFF7EDF82DE0022070BD8B69DB
:1012B000DB431B0702D40820C86124E08B69DB43B1
:1012C0005B070BD44A6A416A4B1C43620A70018D6A
:1012D000491E0185418D491E418514E08B69DB4320
:1012E0009B0610D40B68FC26B3430B6001684B6867
:1012F0000126F60333434B6003682021D9616275F0
:101300002575FFF741F92575002070BD70B50446BD
:101310002034217D012915D00122227501688B69B5
:101320000025DB43DB06002B10DB438D1022002B56
:10133000CA6109D0816B0422114381632575FFF7CF
:10134000A0F82FE0022070BD25752BE08B69DB43F0
:101350001B0702D40820C86124E08B69DB439B068D
:1013600011D40B68FE26B3430B6001684B6801265D
:10137000F60333434B6003682021D96162752575FC
:10138000FFF703F90EE08A69D24392070AD4428D2F
:10139000002A07D0426A531C436212788A62418D48
:1013A000491E41852575002070BD000070B5056897
:1013B000049C68688905890D1204044E1143194381
:1013C000304021430143696070BD0000009800FC7B
:1013D00030B51C4887B04269012189050A43426142
:1013E00042690A400592426949110A4342614269D1
:1013F0000A400592426949000A434261406900245B
:10140000084005900320012500900294694601954B
:1014100003940D48FEF78CFE032040026A4631C259
:101420000925ED0669462846FEF782FEFF200130B9
:10143000009002200290019469462846FEF778FE4B
:1014400007B030BD001002400004004810B50C4841
:101450000A4901600B494160022181600121C1609C
:101460000021016141618161C1610162FFF70AF8F8
:1014700000210348FEF70CFF10BD0000005400409F
:10148000200000200E09002010B50C480A49016018
:101490000021416081600161416181610722016237
:1014A00012024162C26081620A220163C262416328
:1014B000FFF75AFC10BD000000300140CC000020B6
:1014C00010B50A48084901604B21490241600021DA
:1014D0008160C16001618161C1610C220162426170
:1014E0004162FFF7FDFC10BD003801405C000020A8
:1014F0008307FF22DB0E9A408907090E99400028D6
:101500000BDA0007000F0838830808489B001818FA
:10151000C36993430B43C3617047830804489B002E
:101520001B181868904308431860704700ED00E0EE
:1015300000E400E010B50248FFF7D1FB10BD000049
:10154000CC00002010B5FFF721F8FFF7C5FC00F034
:101550005DF810BD70B596B00320009002260125FD
:1015600010200996049001950395000300240AA910
:1015700031C16846FFF7EAF90F9400210DA80E96D5
:101580000D951094FFF7B0F8212011901394149446
:1015900011A8FFF745F8FFF775F97D21C900FEF79F
:1015A0009FFDFFF781FC0420FFF770FC16B070BDB3
:1015B000134801680122114301604168114A11403A
:1015C00041600168104A11400160016801229204E3
:1015D0009143016041683F22120491434160C16A16
:1015E00009090901C162016BFF22143291430163B1
:1015F000416B490849004163002181607047000048
:10160000001002400CB8FF08FFFFF6FEF8B50927EE
:101610000121FF0649023846FEF72EFE012500266D
:101620002F4C0128A07804D0002816D0401EA070AE
:101630001EE0032801D2401CF9E7E078002806D11B
:101640006078002805D06670A079401EA071E57012
:101650000EE06570A079401CF8E7E078012806D11B
:101660006078002811D06670A079401EA071E670E5
:10167000012189023846FEF7FFFD0128207908D0B4
:1016800000281AD0401E207122E06570A079401C0D
:10169000ECE7032801D2401CF5E76079002806D169
:1016A0006078002805D06670A079401CA071657133
:1016B0000EE06570A079401EF8E76079012806D138
:1016C0006078002808D06670A079401CA07166710F
:1016D000A07980082070F8BD6570A079401EF5E7FC
:1016E0000000002010B5818CC90707D001684A6846
:1016F00001235B049A43836A1A434A60818C8907F9
:1017000007D501684A6801231B049A43C36A1A4338
:101710004A60818C490707D501684A6801239B0408
:101720009A43036B1A434A60818C090707D5016805
:101730004A680123DB039A43436B1A434A60818C56
:10174000C90607D50268916801231B039943836B7F
:1017500019439160818C890607D501688A68012345
:101760005B039A43C36B1A438A60818C490612D586
:1017700003685A6801210905046C8A4322435A60B0
:10178000026C8A4207D10268516803235B059943C2
:10179000436C19435160818C090607D501684A687A
:1017A0000123DB04806C9A4302434A6010BD002190
:1017B000C166012260304272017208467047000023
:1017C000F8B504462369A268E6691A4363691021E3
:1017D0003343002026681A4333680546364F3B40A2
:1017E0001343336023685A6803263603B243E6681E
:1017F00032435A60236AA26926681A43B3680B27EA
:101800003F02BB431343B3602C4A126B9207920F03
:1018100006D0012A08D0022A08D0032A07D101E005
:10182000002104E0022102E0042100E0082101225D
:10183000E369D203934220D100290CD002290DD0B4
:10184000042911D0082914D0012501090901000734
:10185000400F08432DE0FFF729F807E018486168BA
:10186000FEF73EFC80B2F0E7FFF730F84000616819
:10187000F6E7012000046168F2E7002908D0022998
:1018800009D004290DD008290FD001252846F8BD1C
:10189000FFF70CF807E00B486168FEF721FC80B207
:1018A00007E0FFF713F86168F7E710466168FEF795
:1018B00017FC2168C860E9E7F369FFFF00100240E8
:1018C0000024F40000127A00F8B51D4616460F46B3
:1018D0000446FEF7D7FC31462646603600900029C4
:1018E00016D041E0681C13D0002D06D0FEF7CAFCCC
:1018F00001460098081AA8420AD920680168802287
:1019000091430160206801682022914301601AE040
:101910002068C16938468843E4D12AE0681C23D096
:10192000002D06D0FEF7AEFC01460098081AA8422A
:101930001AD92068016880229143016020680268FA
:1019400020218A43026020680168FF22013291430E
:101950000160206881684908490081600120707237
:10196000002030720320F8BD2068C16938468843E2
:10197000D4D00020F8BD02E008C8121F08C1002A18
:10198000FAD170477047002001E001C1121F002A00
:10199000FBD17047FEF702FEFFF7DCFDFFF718FDF5
:1019A000FFF754FDFFF770FDFFF78AFDFF210920C7
:1019B0000131C006FEF760FC064E074D334601229A
:1019C00006490748FFF7E6FA2C460220401CA042D1
:1019D000FCD3F3E71027000040420F000000002076
:1019E0005C00002000000000010203040102030467
:1019F00006070809141A0008000000202000000053
:101A000076190008341A0008200000201005000094
:101A1000861900080000000000000000000000001F
:101A200000127A0000000000000000000102030420
:041A30000607080994
:04000005080000B13E
:00000001FF
