:020000040800F2
:10000000A8060020C5000008CD000008CF000008A9
:1000100000000000000000000000000000000000E0
:10002000000000000000000000000000D1000008F7
:100030000000000000000000D3000008451E00087A
:10004000D700000800000000D7000008D700000813
:10005000D7000008D7000008D7000008D700000824
:1000600000000000D7000008D7000008D7000008F3
:10007000D7000008D7000008D700000800000000E3
:10008000D70000080000000000000000D7000008B2
:1000900000000000D7000008D7000008491300083E
:1000A000000000001518000800000000D70000083C
:1000B0000348854600F03CF80048004781210008CD
:1000C000A80600200448804704480047FEE7FEE7F2
:1000D000FEE7FEE7FEE7FEE7AD1E0008B100000800
:1000E00030B50B46014600202022012409E00D46D0
:1000F000D5409D4205D31D469540491B2546954058
:1001000040191546521E002DF1DC30BD03460B434D
:100110009B0703D009E008C9121F08C0042AFAD2BD
:1001200003E00B780370401C491C521EF9D2704743
:10013000064C0125064E05E0E36807CC2B430C3C3A
:1001400098471034B442F7D3FFF7B6FFE021000818
:1001500000220008F0B5002358E001229A4014461E
:100160000A4052D006685F000325BD40AE43AC464E
:100170000660DD08AD002D182E6AAE465D07EF0E55
:100180000F25BD40AE4375462E6286686546AE4378
:1001900086604568A5434560C4686546AC43C46055
:1001A0009D081C4CAD002D19AF689C07260F0F242D
:1001B000B440A4463C400927FF06B84201D10027BD
:1001C0000FE0154FB84201D101270AE0134FB842A2
:1001D00001D1022705E0124FB84201D1032700E008
:1001E0000527B740A74210D1AE686446A643AE606B
:1001F0000C4C256895432560656895436560A56846
:100200009543A560E5689543E5605B1C0A46DA40C6
:10021000A3D1F0BD000001400004004800080048E0
:10022000000C004800040140F8B500238DE00124D3
:100230009C40A44622407DD04C68022C01D0122C58
:100240000CD1DC08A40027183C6A5D07ED0E0F26D0
:10025000AE40B4430E69AE4026433E6205685E0080
:100260000324B4400F79A543BF07BF0FB7402F4306
:1002700007604D68012D05D0022D03D0112D01D04E
:10028000122D0ED18568CF68A543B7402F438760F4
:1002900047686546AF430D79ED06ED0F9D403D4340
:1002A0004560C568A5438C68B4402C43C4604C6865
:1002B000E40049D5284CA56901263543A561A46908
:1002C0009D0834400094254CAD002F19BC689D0753
:1002D0002E0F0F25B540AC430925ED06A84201D1EC
:1002E00000250FE01E4DA84201D101250AE01D4D59
:1002F000A84201D1022505E01B4DA84201D10325EA
:1003000000E00525B5402543BD60184C25684E68C2
:100310009543F60300D51543256065684E689543FF
:10032000B60300D515436560A5684E689543F6028F
:1003300002D500E008E01543A560E5684E689543E6
:10034000B60200D51543E5605B1C0A681446DC4024
:1003500000D06CE7F8BD0000001002400000014032
:100360000004004800080048000C00480004014058
:10037000002A01D08161704781627047014800689E
:10038000704700000400002070B502462032537D03
:10039000022B27D0537D122B24D0537D222B21D02A
:1003A000537D322B1ED0537D422B1BD0137D012B4E
:1003B00018D00123137502245475046825689D43E1
:1003C0002560046825681E03B54325600468256818
:1003D0000D432560006801681943016053750020D2
:1003E000107570BD022070BD10B501688A69D243D6
:1003F000D3050122002B08DB0B68DB431B0604D46A
:10040000836B134383631302CB6101688B69DB4306
:100410005B0509D40B68DB431B0605D4836B0824FA
:1004200023438363E301CB6101688B69DB439B0555
:1004300009D40B68DB431B0605D4836B02242343DA
:1004400083632302CB61816B0B23194203D03521D7
:100450000A5400F092F810BD70B505460068816935
:100460002C46C94389072034002913DA8169C9431E
:1004700009060FD58169C94349060BD58169C9436E
:10048000890607D58169C943C90603D58169C9436E
:10049000090709D401687A20884305D1607D322894
:1004A00002D1284601F0AEF828688169C94389075E
:1004B0000FD58169C94309060BD58169C94349062E
:1004C00007D58169C943890603D58169C943C9062E
:1004D0000CD401687220884308D1607D122802D0B4
:1004E000607D522802D1284600F0C0FF286881694B
:1004F000C943490713D58169C94309060FD58169E5
:10050000C94349060BD58169C943890607D5816965
:10051000C943C90603D58169C94309070AD40068DC
:10052000C0434006C00E05D1607D422802D1284656
:1005300001F01EF828688169C94349070FD5816910
:10054000C94309060BD58169C943490607D58169A5
:10055000C943890603D58169C943C9060CD401681A
:100560007420884308D1607D222802D0607D6228F3
:1005700002D1284600F0F8FE70BD704770B5040047
:1005800006D025462035687D0026002802D005E0EB
:10059000012070BD2E75204600F046F802206875D7
:1005A000206801684908490001600F216068090658
:1005B000884321680861206882680121C9038A4351
:1005C0008260A068002807D0E268012A01D02121BA
:1005D0008902084321688860E068022802D1216806
:1005E00080024860206841680C4A1143416061699B
:1005F00020690843A169090208432168C860216A8B
:10060000E0690843216808602068026801210A4304
:100610000260A6636975002070BD000000800002C2
:10062000704770477047704770B50068164986B0CC
:10063000884227D1001500901225042001240326AA
:1006400004900396019502946946A806FFF7ECFD15
:1006500040200090029469460396019504940B484B
:10066000FFF7E2FD0A48C26961050A43C261C06939
:100670000022084005900321172000F05DF81720A4
:1006800000F050F806B070BD00540040000400486F
:10069000001002407047704702480168491C016021
:1006A000704700000400002010B5064801681022C1
:1006B00011430160002000F007F800F017F8002057
:1006C00010BD00000020024010B5044600F06AF999
:1006D0007D21C900FFF704FD00F02EFD0022214618
:1006E000501E00F029F8002010BD000008B5074892
:1006F00081690122114381618069104000220090CC
:100700001146501E00F018F808BD0000001002400D
:10071000C106C90E012088400149086070470000E9
:1007200080E100E0C106C90E01208840014908604F
:100730007047000000E100E010B501F049F810BD7D
:10074000F8B5054600682D4CC00342D5216A032048
:1007500000026A680140024091423AD0E1692004F7
:100760000143E161E169264E014000913068A11525
:1007700008433060FFF702FE074604E0FFF7FEFD86
:10078000C01B64281BD83068C005F7D5206A032732
:100790003F02226AB843012109040A432262226A05
:1007A0008A432262206280070ED5FFF7E7FD0646E6
:1007B00007E0FFF7E3FD811B1248814201D90320C6
:1007C000F8BD206A8007F4D5206A6968B8430843F9
:1007D00020622878C00705D0206BA96880088000B7
:1007E000084320632878800605D5206B10218843B4
:1007F000E968084320630020F8BD000000100240B3
:100800000070004088130000F8B5054662480E46A7
:100810000068F021C007C00F604CB04254D25E485F
:10082000026852085200324302600068C007C00FDD
:10083000B0426ED12878800704D560688843A968E3
:10084000084360602878C00728D06868012814D061
:100850002168022814D0890700295ADA61688908BA
:10086000890001436160FFF789FD06466868012839
:100870000ED04B4F022817D021E021688903EBE707
:100880008901E9E7FFF77AFD801BB84201D961E0F1
:10089000434F60680007800F0128F3D16DE0FFF738
:1008A0006DFD801BB84255D860680007800F022894
:1008B000F5D162E0FFF762FD801BB8424AD860685C
:1008C0000007800FF6D158E02878800704D56068CB
:1008D0008843A968084360602878C00740D06868EA
:1008E000012813D02168022814D08907002942DA90
:1008F00061688908890001436160FFF73FFD074691
:10090000686801280ED0022818D025E021688903E4
:10091000ECE730E08901E9E7FFF730FDC11B204833
:10092000814217D860680007800F0128F4D117E0D2
:10093000FFF724FDC11B1A4881420BD860680007ED
:10094000800F0228F4D10BE0FFF718FDC11B1448FB
:10095000814201D90320F8BD60680007800FF3D100
:100960000D48016849084900314301600068C0072B
:10097000C00FB04201D00120F8BD2878400706D54D
:100980006068072109028843E96808436060002025
:10099000FFF79AFE0020F8BD002002400010024040
:1009A0008813000010B500F021F805494968054A90
:1009B0000906090F515CC8400349086010BD0000DA
:1009C00000100240D02100080800002010B5FFF7F9
:1009D000E9FF04494968044A4905490F515CC84088
:1009E00010BD000000100240D021000810B513A374
:1009F0000FCB88B06C460FC414A30FCB0FC417499C
:100A00004A680C20134603401548042B02D0082BDB
:100A100002D0144808B010BD93021B0F6C46E45C72
:100A2000C96A04AB0907090F595CD20303D5FFF764
:100A300057FB6043EEE70C486043EBE70203040515
:100A4000060708090A0B0C0D0E0F10100102030413
:100A500005060708090A0B0C0D0E0F1000100240C6
:100A600000366E0100127A0000093D00F8B5044618
:100A70000078DF4DC0075FD068680007800F01284D
:100A800007D068680007800F022809D16868C00392
:100A900006D5286880034FD5606800287ED04BE0DB
:100AA000286801263604B04328602868B700B84398
:100AB0002860FFF763FC009006E0FFF75FFC0099F9
:100AC000411ACC4881426AD828688003F5D460680E
:100AD00001280AD0002801D0052808D02968284616
:100AE000B14329602968B94307E0284603E0296833
:100AF0002846394329600168314301606068002855
:100B00000DD0FFF73BFC0646BA4F04E0FFF736FC7A
:100B1000801BB842D7D828688003F7D50CE0FFF7D0
:100B20002DFC0646B34F04E0FFF728FC801BB842BB
:100B3000C9D828688003F7D42078012780070028C7
:100B40003DDA68680007800F07D068680007800FEB
:100B5000022809D16868C00306D42868800715D523
:100B6000E06801281AD111E0E0680028286817D051
:100B700038432860FFF702FC064604E0FFF7FEFB5F
:100B8000801B64289FD828688007F7D52868F8213B
:100B900088432169C9000843286010E025E1CCE0C2
:100BA000400840002860FFF7E9FB064604E0FFF735
:100BB000E5FB801B642886D828688007F7D4207856
:100BC000000721D5206A0028686A0ED03843686281
:100BD000FFF7D4FB064604E0FFF7D0FB801B642838
:100BE00098D8686A8007F7D50EE040084000686230
:100BF000FFF7C4FB064604E0FFF7C0FB801B642838
:100C000088D8686A8007F7D420780426400700282F
:100C100066DAE969B0060143E961E96901407648AD
:100C200000910168821511430160FFF7A7FB009056
:100C300005E0FFF7A3FB0099401A64287DD86E48B1
:100C40000068C005F5D5286A400840002862286A77
:100C5000B0432862FFF792FB009006E0FFF78EFB9F
:100C60000099411A6348814267D8286A8007F5D401
:100C7000A06801280BD0002801D0052809D0296AD6
:100C80002846490849002962296AB14307E02846F5
:100C900003E0296A284631432962016A3943016227
:100CA000A06800280ED0FFF769FB009006E0FFF770
:100CB00065FB0099411A4F4881423ED8286A800757
:100CC000F5D50DE0FFF75AFB009006E0FFF756FB65
:100CD0000099411A474881422FD8286A8007F5D4E5
:100CE0002078C00635D5606901280CD0401D686B9E
:100CF00024D030436863686B400840006863FFF7A6
:100D00003DFB064622E0686B30436863686B3843FE
:100D10006863FFF733FB064604E0FFF72FFB801BF9
:100D200064285BD8686B8007F7D5686BF821884327
:100D3000A169C900084368630BE04FE0B0436863F2
:100D4000F3E7FFF71BFB801B642847D8686B80071D
:100D5000F7D4606A002846D069680907890F02291C
:100D600043D0012636060228286805D0B043286003
:100D7000FFF704FB044633E0B0432860FFF7FEFAB8
:100D8000074604E0FFF7FAFAC01B642826D8286853
:100D90008001F7D4E86A216B000900010843E8628A
:100DA000A16AE06A084369683D221204914308433E
:100DB0006860286830432860FFF7E0FA044604E0E2
:100DC000FFF7DCFA001B642808D828688001F7D5F3
:100DD00009E0FFF7D3FA001B642801D90320F8BD0E
:100DE00028688001F5D40020F8BD0120F8BD00007E
:100DF000001002408813000000700040704700009F
:100E0000F8B5040006D025464035687F0026002846
:100E100002D005E00120F8BD2E77204600F070F8E2
:100E200002236B772068016840229143016007220A
:100E3000E0681202904201D9002101E0012109037A
:100E40000F273F02B84202D0904200D0A662276B23
:100E5000002F05D1904201D9236301E001202063D6
:100E6000A26860686369104322691A431043012332
:100E7000A2695B021A401043E2691043226A1043E0
:100E8000A26A104322681060206B022804D12068F7
:100E900002689B001A430260626B606AA369104398
:100EA0001B0C0427E2683B401A43104308432168A7
:100EB00048602168E06A08612068C169034A1140FE
:100EC000C1610120266668770020F8BDFFF70000A9
:100ED00010B50068084988420CD10848816982141D
:100EE000914381610920F021C006FFF733F91920F1
:100EF000FFF70EFC10BD0000003001400010024062
:100F000070470000F0B5044613464034227F0025A8
:100F1000012A07D001222277667F0022012E03D00A
:100F2000022564E00220F0BD002921D0002B1FD053
:100F30000426667702660164A380E3808263828769
:100F4000C2874668F71FFD3F02D18668002E11D088
:100F500001210723866A49031B028E4212D1012612
:100F60008664C6689E420ED8066B022E07D00AE041
:100F700001253CE022770A4600F044F8F0BD022645
:100F8000866400E0826402650126C76836039F42DA
:100F900003685F6803D9B7435F60164B02E03743CD
:100FA0005F60154BC36401268368F603B34205D125
:100FB00003681E680127BF03BE431E60836A8B421D
:100FC00008D103681E680D4F3E401E6003681E680E
:100FD0000E431E6001684B68602633434B60006817
:100FE0000168490603D40168402319430160227750
:100FF0002846F0BD391C0008A51C0008FFDF0000D2
:1010000070470000F0B504464034267F0025012ECD
:101010000CD001262677667F012E0ED04668F71F7A
:10102000FD3F08D18668002E05D101E00220F0BD09
:10103000667F042E01D0022560E0002916D0002A28
:1010400014D0002B12D000268664876A012676030E
:10105000BC46B7420ED1012686640726C768360211
:10106000B74207D8066B022E02D003E0012545E007
:1010700002268664667F042E01D005266677002648
:10108000066681638387C3870264A380E3800721A8
:10109000C26809028A4203D91A4AC2641A4A02E0A3
:1010A0001A4AC2641A4A026501225203944508D1C1
:1010B00003681E68174F3E401E6003681E68164393
:1010C0001E600122C36812038B4202D8E188022904
:1010D00003D301684B68934302E001684B681343F4
:1010E0004B6001684A68E0231A434A60006801685F
:1010F000490603D401684022114301600020207793
:101100002846F0BD21190008291A0008891900088D
:10111000731A0008FFDF0000704700000422044932
:101120000428086902D09043086170471043FBE728
:1011300000E000E070470000094910B5401E8842F9
:1011400001D9012010BD074C60610321081F00F088
:101150003FFB0020A06107202061002010BD00009F
:10116000FFFFFF0000E000E010B5FFF7E3FF10BD58
:1011700070B502462032137E012B1BD0012313765B
:1011800002245476046865687026B5436560046877
:1011900065680E68354365600468A5688026B543B8
:1011A000A5600068846849680C4384605376002019
:1011B000107670BD022070BDF8B50D46040005D054
:1011C00026462036707E002802D006E00120F8BDB9
:1011D00000203076204600F03BF802207076206830
:1011E0008168C908C9008160211D206800F08CFE5B
:1011F000226890689369116A2F680743BC461248B9
:10120000AF6903403F021F43A868104B3843EF69A2
:1012100018403F020743EB6828693B432F6A0001EF
:101220003F0338431843AA2399436B686D696746A7
:101230002D010D432B43976021688861206803626C
:10124000012070760020F8BDFCFCFFFF0303FFFFC8
:1012500000B500680D4987B0884215D10C488269F5
:10126000C1140A438261806908400590032000028E
:101270000090002002210290039001910491092026
:101280006946C006FEF7D0FF07B000BD002C014044
:101290000010024070B5040005D025466035687A1C
:1012A000002802D006E0012070BD002028722046F0
:1012B00000F026F802206872206801684908490099
:1012C0000160204600F0C8FE0128EDD0606A0028C9
:1012D00002D0204600F052FE206841680922D20266
:1012E00091434160206881682A229143816020688F
:1012F0000168012211430160204600F0A4FE70BD88
:1013000000B500680E4987B0884216D10D48826941
:10131000012189030A4382618069084005900C20FD
:10132000009002200190012103200390029104917A
:1013300009206946C006FEF777FF07B000BD000030
:10134000003801400010024010B50648006880696E
:101350004005400F034802D0FFF746F810BDFFF7E5
:101360007BF810BD54010020F8B505460446203531
:10137000287D012814D00121297520688269002662
:10138000D2435207002A0DDB416A606A421C626246
:101390000170208D401E2085608D401E608560E0BC
:1013A0000220F8BD8269D24313064022002B21DBC4
:1013B000218D00291AD1618D002917D0406881053F
:1013C000608D890DFF28009606D99304FF222046E0
:1013D00000F068F9FF2007E0608D0123C2B25B06D0
:1013E000204600F05FF9608D20853AE02E75A06BF5
:1013F000104332E08369DB435B0608D4618D00292A
:10140000F4D14168012292031143416029E08269CD
:10141000D243920617D40268F4239A4302602268EA
:101420002020D061206842680F4B1A4042606975E5
:101430002E75687D6228204602D0FFF7F1F810E093
:10144000FFF7F0F80DE08169C943C90609D41021FE
:10145000C1612E75A06B04210843A0632046FFF7ED
:101460008CF82E750020F8BD00E800FEF8B50546A2
:1014700004462035287D012814D0012129752068D3
:1014800082690026D2439207002A0DDB616A4A1C5A
:10149000626209788162208D401E2085608D401E29
:1014A000608560E00220F8BD8269D24313064022C5
:1014B000002B21DB218D00291AD1618D002917D045
:1014C00040688105608D890DFF28009606D9930438
:1014D000FF22204600F0E6F8FF2007E0608D0123A0
:1014E000C2B25B06204600F0DDF8608D20853AE050
:1014F0002E75A06B104332E08369DB435B0608D492
:10150000618D0029F4D141680122920311434160A9
:1015100029E08269D243920617D40268F2239A43E3
:10152000026022682020D061206842680F4B1A4078
:10153000426069752E75687D5228204602D0FFF7FB
:1015400070F810E0FFF76FF80DE08169C943C90634
:1015500009D41021C1612E75A06B04210843A0633A
:101560002046FFF70AF82E750020F8BD00E800FEBF
:1015700070B504462034217D012912D00122227544
:1015800001688B690025DB43DB06002B0BDB102297
:10159000CA612575816B042211438163FEF7EDFF5B
:1015A0002DE0022070BD8B69DB431B0702D40820AD
:1015B000C86124E08B69DB435B070BD44A6A416A4C
:1015C0004B1C43620A70018D491E0185418D491EE5
:1015D000418514E08B69DB439B0610D40B68FC2625
:1015E000B3430B6001684B680126F60333434B603D
:1015F00003682021D96162752575FFF74BF82575C1
:10160000002070BD70B504462034217D012915D01D
:101610000122227501688B690025DB43DB06002B64
:1016200010DB438D1022002BCA6109D0816B04228C
:10163000114381632575FEF7A0FF2FE0022070BDE6
:1016400025752BE08B69DB431B0702D40820C8619A
:1016500024E08B69DB439B0611D40B68FE26B34361
:101660000B6001684B680126F60333434B60036847
:101670002021D96162752575FFF70DF80EE08A69A2
:10168000D24392070AD4428D002A07D0426A531CE3
:10169000436212788A62418D491E4185257500207A
:1016A00070BD000070B50568049C68688905890DE7
:1016B0001204044E11431943304021430143696031
:1016C00070BD0000009800FC00B5124887B0426968
:1016D000012189050A43426142690A400592426933
:1016E00049110A43426142690A4005924269490030
:1016F0000A434261406908400590032000900120A0
:10170000019000200290039069460348FEF78CFD8B
:1017100007B000BD001002400004004810B50C489E
:101720000A4901600B494160022181600121C160C9
:101730000021016141618161C1610162FEF71EFF0B
:1017400000210348FEF720FE10BD000000540040B9
:10175000540100200E09002010B50F490F488CB02D
:10176000002412C0046044608460C46001200090C2
:10177000019402900394069004940594079469469A
:1017800008940648FFF718FD099409A903480A942C
:10179000FFF7EEFC0CB010BD002C0140180100203A
:1017A00010B50A48084901604B21490241600021F7
:1017B0008160C16001618161C1610C22016242618D
:1017C0004162FFF767FD10BD003801409001002025
:1017D0008307FF22DB0E9A408907090E99400028F3
:1017E0000BDA0007000F0838830808489B00181818
:1017F000C36993430B43C3617047830804489B004C
:101800001B181868904308431860704700ED00E00B
:1018100000E400E010B5074BD868084A064C117880
:1018200060540020401C6428FCD30548D860491C43
:10183000117010BD003001401C000020000000208D
:1018400028340000F0B5324D93B06969012040049E
:10185000014369616969002401401291E0200D9003
:10186000022003260EAA51C20927FF060DA93846F9
:101870001194FEF7D9FC10200D900E940DA910962E
:101880000F943846FEF7D0FCA969A8140143A9615A
:10189000A96901401F481291FFF71AFB07200002B7
:1018A00002900094019420200394049405940690DF
:1018B000184D0794089409940A9417482860342214
:1018C0006946281DFEF722FC0121A9872846E987E1
:1018D0002038286460308180C180047744774038A4
:1018E0002C66FFF78DFA002202211920FEF724FF53
:1018F000286841684022114341601920FEF712FF19
:10190000012206492846FFF7FDFA002013B0F0BD7A
:101910000010024040020020003001400100002081
:1019200010B50168C968026C1180016C891C0164E2
:10193000014640310A46C988491E0904090CD18074
:1019400006D10122816A5203914202D10649C16443
:1019500010BD01684A6840239A434A60C18F00293C
:10196000F6D100F0B5F810BD6D19000808B5016892
:10197000CA686B461A801A884A6840239A434A60AC
:1019800000F0A6F808BD000070B501464031CD88D2
:10199000012424030368026C012D0FD9DB68138036
:1019A000026C921C0264CA88921E92B2CA80012AFA
:1019B0000BD1026853682343536006E01D7B531C20
:1019C00003641570CA88521ECA80C98800290AD1CA
:1019D0000122816A5203914201684A6804D122437C
:1019E0004A600649C16470BD40239A434A60C18F72
:1019F0000029F8D100F06CF870BD0000011A000851
:101A000008B501680B7B6A4613701278826C521E0F
:101A1000826408D14A6840239A434A60C18F0029F2
:101A200001D100F055F808BD10B5816B0268098836
:101A3000D160816B891C8163C18F491E0904090C27
:101A4000C18715D10122816A5203914205D10168F3
:101A50000A6801231B031A430A6001684A6880234D
:101A60009A434A604621095A002901D100F030F812
:101A700010BD10B5C38F0268816B022B07D3098894
:101A8000D160816B891C8163C18F891E05E04B1C6D
:101A9000836309781173C18F491EC1870904090C3A
:101AA00015D10122816A5203914205D101680A6869
:101AB00001231B031A430A6001684A6880239A4382
:101AC0004A604621095A002901D100F001F810BDF1
:101AD00070B50446006841682025A9434160322161
:101AE000204600F090F8002802D0206E284320669F
:101AF000226890680121C043C30620464030002B75
:101B000007DB4177206E0221084320660A48906077
:101B100003E0226E002A04D041772046FFF76EF9D9
:101B200070BD427F4177042A204602D0FFF7F4FAC5
:101B300070BDFFF765FA70BDEFFF000010B50446F9
:101B4000006841686022914341603221204600F0E4
:101B500023F8002803D0206E2021084320660121AD
:101B60005D20015520688168C943C90606D4216EED
:101B70000222114321660749816002E0206E00289D
:101B800003D02046FFF73AF910BD2046FFF738FA98
:101B900010BD0000EFFF0000F3B504464068FF25CC
:101BA00001260535F60381B0A8420AD1A068B042EB
:101BB00002D07111884204D120680168402291430B
:101BC0000160002280212046029B00F0F3F82027CC
:101BD000002811D16068A84213D1A068B04202D099
:101BE000790188420DD10321002249022046029B3F
:101BF00000F08EF8002804D0206E384320660320C1
:101C0000FEBD0020FEBD70B50E460B460321044606
:101C10000022C90200F07CF82025002807D13346B5
:101C200000228021204600F0C5F8002803D0206E55
:101C300028432066032070BD70B50168C968026C36
:101C40001180016C891C016401464031CA88521E12
:101C500093B201225203CB80012B07D1836A9342B6
:101C60000CD103681C6855102C431C60C9880029DE
:101C700004D1816A914202D10249C16470BDFFF76B
:101C80005DFF70BD891C000808B50168CA686B4615
:101C90001A801A884A6860239A434A60FFF74EFF09
:101CA00008BD000070B501680B7B016C4A1C026422
:101CB0000B7001464031CA88521E93B20122520372
:101CC000CB80012B07D1836A93420CD103681C6837
:101CD00055102C431C60C988002904D1816A9142A7
:101CE00002D10349C16470BDFFF728FF70BD000039
:101CF000F51C000808B501680A7B69460A70097876
:101D0000816C491E816401D1FFF718FF08BD0000F6
:101D1000FEB51D4617460E460446FEF72FFB009003
:101D20003EE0032149028E4205D1002F03D1017B01
:101D3000684601710079681C32D0002D05D0FEF78D
:101D40001DFB0099401AA8422AD320684168E0226E
:101D5000914341606068C11FFD390CD10121A06829
:101D6000C903884202D04911884204D12068016821
:101D70004022914301600120A16A4003814208D1C1
:101D800021680A680A4B1A400A6021680A680243FF
:101D90000A60012040346077002020770320FEBDD8
:101DA000206881683140B942BBD10020FEBD0000EF
:101DB000FFDF0000F8B51D4616460F460446FEF745
:101DC000DDFA009034E0681C32D0002D05D0FEF71B
:101DD000D5FA0099401AA8422AD320684168E02227
:101DE000914341606068C11FFD390CD10121A06899
:101DF000C903884202D04911884204D12068016891
:101E00004022914301600120A16A4003814208D130
:101E100021680A680A4B1A400A6021680A6802436E
:101E20000A60012040346077002020770320F8BD4D
:101E3000206880683840B042C5D10020F8BD00005D
:101E4000FFDF000010B5FEF727FCFFF78DF910BD8E
:101E500070B596B003200090022601251020099647
:101E6000049001950395000300240AA931C1684636
:101E7000FEF7FCFD0F9400210DA80E960D95109411
:101E8000FEF7C2FC212011901394149411A8FEF7C0
:101E900057FCFEF787FD7D21C900FEF721F9FFF70A
:101EA0004BF90420FFF73AF916B070BD13480168EA
:101EB0000122114301604168114A114041600168EB
:101EC000104A1140016001680122920491430160AF
:101ED00041683F22120491434160C16A0909090126
:101EE000C162016BFF22143291430163416B4908C7
:101EF00049004163002181607047000000100240EA
:101F00000CB8FF08FFFFF6FE70B50268164B174DC0
:101F1000984201D0A84204D1144670264A68B443BE
:101F20002243134C134E984208D0A84206D0124DBB
:101F3000A84203D0A04201D0B04204D103252D0213
:101F4000AA43CD682A4302608A68C2620A68826234
:101F5000984203D0A04201D0B04201D10969016387
:101F60000121416170BD0000002C014000040040CF
:101F700000440140004801400020004010B5818C21
:101F8000C90707D001684A6801235B049A43836A42
:101F90001A434A60818C890707D501684A68012382
:101FA0001B049A43C36A1A434A60818C490707D5C8
:101FB00001684A6801239B049A43036B1A434A60F1
:101FC000818C090707D501684A680123DB039A431E
:101FD000436B1A434A60818CC90607D50268916831
:101FE00001231B039943836B19439160818C8906FC
:101FF00007D501688A6801235B039A43C36B1A43C0
:102000008A60818C490612D503685A680121090546
:10201000046C8A4322435A60026C8A4207D10268E8
:10202000516803235B059943436C19435160818CCC
:10203000090607D501684A680123DB04806C9A43CE
:1020400002434A6010BD0021C16601226030427225
:102050000172084670470000F8B504462369A2687B
:10206000E6691A43636910213343002026681A4346
:1020700033680546364F3B401343336023685A6844
:1020800003263603B243E66832435A60236AA269E4
:1020900026681A43B3680B273F02BB431343B36060
:1020A0002C4A126B9207920F06D0012A08D0022AFE
:1020B00008D0032A07D101E0002104E0022102E058
:1020C000042100E008210122E369D203934220D1D8
:1020D00000290CD002290DD0042911D0082914D0D0
:1020E0000125010909010007400F08432DE0FEF713
:1020F0006DFC07E018486168FDF7F2FF80B2F0E779
:10210000FEF774FC40006168F6E701200004616896
:10211000F2E7002908D0022909D004290DD00829A6
:102120000FD001252846F8BDFEF750FC07E00B480C
:102130006168FDF7D5FF80B207E0FEF757FC6168E4
:10214000F7E710466168FDF7CBFF2168C860E9E753
:10215000F369FFFF001002400024F40000127A002F
:1021600002E008C8121F08C1002AFAD17047704760
:10217000002001E001C1121F002AFBD170470000BE
:10218000FEF792FAFFF764FEFFF79EFAFFF7C6FA32
:10219000FFF7E2FAFFF704FBFFF754FB0A4D0B4E83
:1021A000012211462846FEF7E3F834460221491C75
:1021B000A142FCD3002201212846FEF7D9F80221D2
:1021C000491CA142FCD3EBE70004004840420F0049
:1021D00000000000010203040102030406070809CD
:1021E00000220008000000201C0000006021000800
:1021F0001C2200081C0000208C0600007021000832
:10220000000000000000000000127A000000000042
:0C2210000000000001020304060708099A
:04000005080000B13E
:00000001FF
