:020000040800F2
:1000000080060020C5000008CD000008CF000008D1
:1000100000000000000000000000000000000000E0
:10002000000000000000000000000000D1000008F7
:100030000000000000000000D3000008B51D00080B
:10004000D700000800000000D7000008D700000813
:10005000D7000008D7000008D7000008D700000824
:1000600000000000D7000008D7000008D7000008F3
:10007000D7000008D7000008D700000800000000E3
:10008000D70000080000000000000000D7000008B2
:1000900000000000D7000008D7000008D9120008AF
:1000A000000000008917000800000000D7000008C9
:1000B0000348854600F03CF8004800470522000848
:1000C000800600200448804704480047FEE7FEE71A
:1000D000FEE7FEE7FEE7FEE7211E0008B10000088C
:1000E00030B50B46014600202022012409E00D46D0
:1000F000D5409D4205D31D469540491B2546954058
:1001000040191546521E002DF1DC30BD03460B434D
:100110009B0703D009E008C9121F08C0042AFAD2BD
:1001200003E00B780370401C491C521EF9D2704743
:10013000064C0125064E05E0E36807CC2B430C3C3A
:1001400098471034B442F7D3FFF7B6FFC423000832
:10015000E4230008F0B5002358E001229A40144639
:100160000A4052D006685F000325BD40AE43AC464E
:100170000660DD08AD002D182E6AAE465D07EF0E55
:100180000F25BD40AE4375462E6286686546AE4378
:1001900086604568A5434560C4686546AC43C46055
:1001A0009D081C4CAD002D19AF689C07260F0F242D
:1001B000B440A4463C400927FF06B84201D10027BD
:1001C0000FE0154FB84201D101270AE0134FB842A2
:1001D00001D1022705E0124FB84201D1032700E008
:1001E0000527B740A74210D1AE686446A643AE606B
:1001F0000C4C256895432560656895436560A56846
:100200009543A560E5689543E5605B1C0A46DA40C6
:10021000A3D1F0BD000001400004004800080048E0
:10022000000C004800040140F8B500238DE00124D3
:100230009C40A44622407DD04C68022C01D0122C58
:100240000CD1DC08A40027183C6A5D07ED0E0F26D0
:10025000AE40B4430E69AE4026433E6205685E0080
:100260000324B4400F79A543BF07BF0FB7402F4306
:1002700007604D68012D05D0022D03D0112D01D04E
:10028000122D0ED18568CF68A543B7402F438760F4
:1002900047686546AF430D79ED06ED0F9D403D4340
:1002A0004560C568A5438C68B4402C43C4604C6865
:1002B000E40049D5284CA56901263543A561A46908
:1002C0009D0834400094254CAD002F19BC689D0753
:1002D0002E0F0F25B540AC430925ED06A84201D1EC
:1002E00000250FE01E4DA84201D101250AE01D4D59
:1002F000A84201D1022505E01B4DA84201D10325EA
:1003000000E00525B5402543BD60184C25684E68C2
:100310009543F60300D51543256065684E689543FF
:10032000B60300D515436560A5684E689543F6028F
:1003300002D500E008E01543A560E5684E689543E6
:10034000B60200D51543E5605B1C0A681446DC4024
:1003500000D06CE7F8BD0000001002400000014032
:100360000004004800080048000C00480004014058
:100370000069084000D001207047002A01D0816147
:1003800070478162704700000148006870470000B4
:100390001800002070B502462032537D022B27D072
:1003A000537D122B24D0537D222B21D0537D322B11
:1003B0001ED0537D422B1BD0137D012B18D001235F
:1003C000137502245475046825689D4325600468EC
:1003D00025681E03B5432560046825680D43256024
:1003E000006801681943016053750020107570BDE5
:1003F000022070BD10B501688A69D243D30501227D
:10040000002B08DB0B68DB431B0604D4836B134310
:1004100083631302CB6101688B69DB435B0509D4FD
:100420000B68DB431B0605D4836B082423438363DB
:10043000E301CB6101688B69DB439B0509D40B6841
:10044000DB431B0605D4836B02242343836323020F
:10045000CB61816B0B23194203D035210A5400F084
:1004600092F810BD70B50546006881692C46C943F5
:1004700089072034002913DA8169C94309060FD599
:100480008169C94349060BD58169C943890607D5E6
:100490008169C943C90603D58169C943090709D4DC
:1004A00001687A20884305D1607D322802D1284630
:1004B00001F070F828688169C94389070FD58169FF
:1004C000C94309060BD58169C943490607D5816926
:1004D000C943890603D58169C943C9060CD401689B
:1004E0007220884308D1607D122802D0607D522896
:1004F00002D1284600F082FF28688169C943490774
:1005000013D58169C94309060FD58169C9434906D5
:100510000BD58169C943890607D58169C943C906D5
:1005200003D58169C94309070AD40068C04340065E
:10053000C00E05D1607D422802D1284600F0E0FFC0
:1005400028688169C94349070FD58169C9430906EC
:100550000BD58169C943490607D58169C943890615
:1005600003D58169C943C9060CD401687420884346
:1005700008D1607D222802D0607D622802D1284601
:1005800000F0BAFE70BD704770B5040006D0254675
:100590002035687D0026002802D005E0012070BDCE
:1005A0002E75204600F046F8022068752068016824
:1005B0004908490001600F216068090688432168E5
:1005C0000861206882680121C9038A438260A068AB
:1005D000002807D0E268012A01D0212189020843BE
:1005E00021688860E068022802D1216880024860A2
:1005F000206841680C4A11434160616920690843E1
:10060000A169090208432168C860216AE0690843BA
:10061000216808602068026801210A430260A6631D
:100620006975002070BD00000080000270477047AF
:100630007047704700B50068114987B088421DD1E6
:10064000C02000901220012101900320029104910A
:10065000039069460B48FFF7E7FD0B48C26901218B
:1006600049050A43C261C069002208400590032180
:10067000172000F05DF8172000F050F807B000BD1B
:1006800000540040000400480010024070477047CA
:1006900002480168491C01607047000018000020F2
:1006A00010B506480168102211430160002000F0D7
:1006B00007F800F017F8002010BD000000200240ED
:1006C00010B5044600F06AF97D21C900FFF708FD66
:1006D00000F02EFD00222146501E00F029F80020D7
:1006E00010BD000008B507488169012211438161EE
:1006F00080691040002200901146501E00F018F84A
:1007000008BD000000100240C106C90E012088404B
:10071000014908607047000080E100E0C106C90E91
:1007200001208840014908607047000000E100E0B6
:1007300010B501F007F810BDF8B5054600682D4C5E
:10074000C00342D5216A032000026A6801400240CA
:1007500091423AD0E16920040143E161E169264E0A
:10076000014000913068A11508433060FFF70CFE8E
:10077000074604E0FFF708FEC01B64281BD830685A
:10078000C005F7D5206A03273F02226AB84301213A
:1007900009040A432262226A8A4322622062800795
:1007A0000ED5FFF7F1FD064607E0FFF7EDFD811BD3
:1007B0001248814201D90320F8BD206A8007F4D590
:1007C000206A6968B843084320622878C00705D0CA
:1007D000206BA96880088000084320632878800681
:1007E00005D5206B10218843E96808432063002069
:1007F000F8BD0000001002400070004088130000A7
:10080000F8B5054662480E460068F021C007C00FE3
:10081000604CB04254D25E480268520852003243E3
:1008200002600068C007C00FB0426ED12878800710
:1008300004D560688843A968084360602878C007C9
:1008400028D06868012814D02168022814D08907AC
:1008500000295ADA61688908890001436160FFF75D
:1008600093FD0646686801280ED04B4F022817D02A
:1008700021E021688903EBE78901E9E7FFF784FDBF
:10088000801BB84201D961E0434F60680007800FC8
:100890000128F3D16DE0FFF777FD801BB84255D8F2
:1008A00060680007800F0228F5D162E0FFF76CFD59
:1008B000801BB8424AD860680007800FF6D158E024
:1008C0002878800704D560688843A9680843606079
:1008D0002878C00740D06868012813D02168022812
:1008E00014D08907002942DA616889088900014328
:1008F0006160FFF749FD0746686801280ED00228AD
:1009000018D025E021688903ECE730E08901E9E7A8
:10091000FFF73AFDC11B2048814217D860680007E5
:10092000800F0128F4D117E0FFF72EFDC11B1A48F4
:1009300081420BD860680007800F0228F4D10BE0D9
:10094000FFF722FDC11B1448814201D90320F8BDE5
:1009500060680007800FF3D10D480168490849001D
:10096000314301600068C007C00FB04201D00120D0
:10097000F8BD2878400706D560680721090288433A
:10098000E968084360600020FFF79AFE0020F8BD88
:1009900000200240001002408813000010B500F053
:1009A00021F805494968054A0906090F515CC84004
:1009B0000349086010BD000000100240B423000885
:1009C0001C00002010B5FFF7E9FF04494968044AFC
:1009D0004905490F515CC84010BD0000001002409D
:1009E000B423000810B513A30FCB88B06C460FC416
:1009F00014A30FCB0FC417494A680C2013460340B9
:100A00001548042B02D0082B02D0144808B010BDA2
:100A100093021B0F6C46E45CC96A04AB0907090F1B
:100A2000595CD20303D5FFF75BFB6043EEE70C484C
:100A30006043EBE702030405060708090A0B0C0DE7
:100A40000E0F10100102030405060708090A0B0C1B
:100A50000D0E0F100010024000366E0100127A00D9
:100A600000093D00F8B504460078DF4DC0075FD0AF
:100A700068680007800F012807D068680007800FAA
:100A8000022809D16868C00306D5286880034FD5BD
:100A9000606800287ED04BE0286801263604B04309
:100AA00028602868B700B8432860FFF76DFC009005
:100AB00006E0FFF769FC0099411ACC4881426AD8E8
:100AC00028688003F5D4606801280AD0002801D086
:100AD000052808D029682846B14329602968B94308
:100AE00007E0284603E02968284639432960016861
:100AF00031430160606800280DD0FFF745FC0646D1
:100B0000BA4F04E0FFF740FC801BB842D7D82868F2
:100B10008003F7D50CE0FFF737FC0646B34F04E03F
:100B2000FFF732FC801BB842C9D828688003F7D48D
:100B300020780127800700283DDA68680007800FC9
:100B400007D068680007800F022809D16868C003D1
:100B500006D42868800715D5E06801281AD111E06D
:100B6000E0680028286817D038432860FFF70CFC9D
:100B7000064604E0FFF708FC801B64289FD828681D
:100B80008007F7D52868F82188432169C900084300
:100B9000286010E025E1CCE0400840002860FFF725
:100BA000F3FB064604E0FFF7EFFB801B642886D8C2
:100BB00028688007F7D42078000721D5206A00280C
:100BC000686A0ED038436862FFF7DEFB064604E031
:100BD000FFF7DAFB801B642898D8686A8007F7D58E
:100BE0000EE0400840006862FFF7CEFB064604E0D6
:100BF000FFF7CAFB801B642888D8686A8007F7D48F
:100C0000207804264007002866DAE969B006014327
:100C1000E961E96901407648009101688215114354
:100C20000160FFF7B1FB009005E0FFF7ADFB009915
:100C3000401A64287DD86E480068C005F5D5286A3A
:100C4000400840002862286AB0432862FFF79CFBF6
:100C5000009006E0FFF798FB0099411A6348814233
:100C600067D8286A8007F5D4A06801280BD000282F
:100C700001D0052809D0296A284649084900296277
:100C8000296AB14307E0284603E0296A2846314330
:100C90002962016A39430162A06800280ED0FFF77B
:100CA00073FB009006E0FFF76FFB0099411A4F4875
:100CB00081423ED8286A8007F5D50DE0FFF764FB36
:100CC000009006E0FFF760FB0099411A4748814217
:100CD0002FD8286A8007F5D42078C00635D56069FA
:100CE00001280CD0401D686B24D030436863686BCA
:100CF000400840006863FFF747FB064622E0686B48
:100D000030436863686B38436863FFF73DFB064612
:100D100004E0FFF739FB801B64285BD8686B800711
:100D2000F7D5686BF8218843A169C9000843686357
:100D30000BE04FE0B0436863F3E7FFF725FB801B50
:100D4000642847D8686B8007F7D4606A002846D0CB
:100D500069680907890F022943D00126360602284F
:100D6000286805D0B0432860FFF70EFB044633E047
:100D7000B0432860FFF708FB074604E0FFF704FBD9
:100D8000C01B642826D828688001F7D4E86A216B44
:100D9000000900010843E862A16AE06A0843696843
:100DA0003D2212049143084368602868304328605C
:100DB000FFF7EAFA044604E0FFF7E6FA001B6428AE
:100DC00008D828688001F7D509E0FFF7DDFA001B95
:100DD000642801D90320F8BD28688001F5D40020DB
:100DE000F8BD0120F8BD000000100240881300008B
:100DF0000070004070470000F8B5040006D025469A
:100E00004035687F0026002802D005E00120F8BDAB
:100E10002E77204600F070F802236B772068016877
:100E20004022914301600722E0681202904201D9FA
:100E3000002101E0012109030F273F02B84202D03F
:100E4000904200D0A662276B002F05D1904201D9B5
:100E5000236301E001202063A26860686369104396
:100E600022691A4310430123A2695B021A4010430E
:100E7000E2691043226A1043A26A1043226810609C
:100E8000206B022804D1206802689B001A4302608C
:100E9000626B606AA36910431B0C0427E2683B4045
:100EA0001A4310430843216848602168E06A0861DA
:100EB0002068C169034A1140C16101202666687734
:100EC0000020F8BDFFF7000010B50068084988420F
:100ED0000CD1084881698214914381610920F02175
:100EE000C006FFF737F91920FFF70EFC10BD000010
:100EF000003001400010024070470000F0B5044689
:100F000013464034227F0025012A07D00122227790
:100F1000667F0022012E03D0022564E00220F0BD8E
:100F2000002921D0002B1FD00426667702660164B9
:100F3000A380E38082638287C2874668F71FFD3FF4
:100F400002D18668002E11D001210723866A490349
:100F50001B028E4212D101268664C6689E420ED8BC
:100F6000066B022E07D00AE001253CE022770A46F4
:100F700000F044F8F0BD0226866400E08264026559
:100F80000126C76836039F4203685F6803D9B743E9
:100F90005F60164B02E037435F60154BC364012668
:100FA0008368F603B34205D103681E680127BF03B7
:100FB000BE431E60836A8B4208D103681E680D4FD2
:100FC0003E401E6003681E680E431E6001684B6849
:100FD000602633434B6000680168490603D401680A
:100FE00040231943016022772846F0BDA91B000861
:100FF000151C0008FFDF000070470000F0B5044634
:101000004034267F0025012E0CD001262677667FEE
:10101000012E0ED04668F71FFD3F08D18668002ECE
:1010200005D101E00220F0BD667F042E01D002252B
:1010300060E0002916D0002A14D0002B12D0002620
:101040008664876A01267603BC46B7420ED1012624
:1010500086640726C7683602B74207D8066B022E99
:1010600002D003E0012545E002268664667F042E57
:1010700001D0052666770026066681638387C387CD
:101080000264A380E3800721C26809028A4203D96F
:101090001A4AC2641A4A02E01A4AC2641A4A02652B
:1010A00001225203944508D103681E68174F3E4041
:1010B0001E6003681E6816431E600122C368120387
:1010C0008B4202D8E188022903D301684B6893431D
:1010D00002E001684B6813434B6001684A68E023F3
:1010E0001A434A6000680168490603D40168402237
:1010F00011430160002020772846F0BD91180008B8
:1011000099190008F9180008E3190008FFDF00002A
:1011100070470000042204490428086902D0904363
:10112000086170471043FBE700E000E070470000F3
:10113000094910B5401E884201D9012010BD074C55
:1011400060610321081F00F0FDFA0020A061072064
:101150002061002010BD0000FFFFFF0000E000E064
:1011600010B5FFF7E3FF10BD70B5040005D02546AC
:101170006035687A002802D006E0012070BD0020AA
:101180002872204600F026F8022068722068016864
:10119000490849000160204600F04AFF0128EDD0CF
:1011A000606A002802D0204600F0D4FE2068416822
:1011B0000922D20291434160206881682A2291432A
:1011C000816020680168012211430160204600F01F
:1011D00026FF70BD00B500680E4987B0884216D161
:1011E0000D488269012189030A43826180690840B0
:1011F00005900C2000900220019001210320039013
:101200000291049109206946C006FFF70DF807B066
:1012100000BD00000038014000100240FFB5054647
:1012200004466035687A81B00E46012802D0687A9B
:1012300022284ED1002E1DD0002A1BD0287A01284A
:1012400047D0012028720020E066687A222814D056
:1012500012206872274640373A827A82788A0022C2
:10126000401E788280212046049B00F065FF002804
:101270001CD104E0012005B0F0BD3220E9E70120D7
:10128000A1680003814202D12069002810D02168A2
:1012900030780885761C788A0028DFD1002240212A
:1012A0002046049B00F048FF002808D00320E2E716
:1012B00030882168C005C00D0885B61CEBE7687A48
:1012C000322804D00120687200202872D3E722203F
:1012D000F9E70220CFE7000010B5064800688069F2
:1012E0004005400F034802D0FFF784F810BDFFF718
:1012F000B9F810BD2C010020F8B50546044620358C
:10130000287D012814D001212975206882690026D2
:10131000D2435207002A0DDB416A606A421C6262B6
:101320000170208D401E2085608D401E608560E02C
:101330000220F8BD8269D24313064022002B21DB34
:10134000218D00291AD1618D002917D040688105AF
:10135000608D890DFF28009606D99304FF22204650
:1013600000F068F9FF2007E0608D0123C2B25B0640
:10137000204600F05FF9608D20853AE02E75A06B65
:10138000104332E08369DB435B0608D4618D00299A
:10139000F4D14168012292031143416029E082693E
:1013A000D243920617D40268F4239A43026022685B
:1013B0002020D061206842680F4B1A404260697556
:1013C0002E75687D6228204602D0FFF72FF910E0C5
:1013D000FFF72EF90DE08169C943C90609D4102130
:1013E000C1612E75A06B04210843A0632046FFF75E
:1013F000CAF82E750020F8BD00E800FEF8B50546D5
:1014000004462035287D012814D001212975206843
:1014100082690026D2439207002A0DDB616A4A1CCA
:10142000626209788162208D401E2085608D401E99
:10143000608560E00220F8BD8269D2431306402235
:10144000002B21DB218D00291AD1618D002917D0B5
:1014500040688105608D890DFF28009606D99304A8
:10146000FF22204600F0E6F8FF2007E0608D012310
:10147000C2B25B06204600F0DDF8608D20853AE0C0
:101480002E75A06B104332E08369DB435B0608D402
:10149000618D0029F4D1416801229203114341601A
:1014A00029E08269D243920617D40268F2239A4354
:1014B000026022682020D061206842680F4B1A40E9
:1014C000426069752E75687D5228204602D0FFF76C
:1014D000AEF810E0FFF7ADF80DE08169C943C90629
:1014E00009D41021C1612E75A06B04210843A063AB
:1014F0002046FFF748F82E750020F8BD00E800FEF2
:1015000070B504462034217D012912D001222275B4
:1015100001688B690025DB43DB06002B0BDB102207
:10152000CA612575816B042211438163FFF72BF893
:101530002DE0022070BD8B69DB431B0702D408201D
:10154000C86124E08B69DB435B070BD44A6A416ABC
:101550004B1C43620A70018D491E0185418D491E55
:10156000418514E08B69DB439B0610D40B68FC2695
:10157000B3430B6001684B680126F60333434B60AD
:1015800003682021D96162752575FFF77FF82575FD
:10159000002070BD70B504462034217D012915D08E
:1015A0000122227501688B690025DB43DB06002BD5
:1015B00010DB438D1022002BCA6109D0816B0422FD
:1015C000114381632575FEF7DEFF2FE0022070BD19
:1015D00025752BE08B69DB431B0702D40820C8610B
:1015E00024E08B69DB439B0611D40B68FE26B343D2
:1015F0000B6001684B680126F60333434B600368B8
:101600002021D96162752575FFF741F80EE08A69DE
:10161000D24392070AD4428D002A07D0426A531C53
:10162000436212788A62418D491E418525750020EA
:1016300070BD000070B50568049C68688905890D57
:101640001204044E114319433040214301436960A1
:1016500070BD0000009800FC30B51C4887B042699E
:10166000012189050A43426142690A4005924269A3
:1016700049110A43426142690A40059242694900A0
:101680000A43426140690024084005900320012577
:10169000009002946946019503940D48FEF7C4FD3D
:1016A000032040026A4631C20925ED0669462846F4
:1016B000FEF7BAFDFF200130009002200290019455
:1016C00069462846FEF7B0FD07B030BD0010024065
:1016D0000004004810B50C480A4901600B494160FC
:1016E000022181600121C1600021016141618161AC
:1016F000C1610162FEF748FF00210348FEF74AFE80
:1017000010BD0000005400402C0100200E090020F4
:101710007047000010B50A48084901604B21490292
:10172000416000218160C16001618161C1610C2261
:10173000016242614162FFF717FD10BD00380140B0
:10174000680100208307FF22DB0E9A408907090EFB
:10175000994000280BDA0007000F08388308084872
:101760009B001818C36993430B43C36170478308F8
:1017700004489B001B181868904308431860704782
:1017800000ED00E000E400E00649C868074B064AA7
:101790001B78D0540020401C6428FCD30448C86047
:1017A00070470000003001403000002000000020A1
:1017B00028340000F0B5324D93B06969012040042F
:1017C000014369616969002401401291E0200D9094
:1017D000022003260EAA51C20927FF060DA938468A
:1017E0001194FEF721FD10200D900E940DA9109676
:1017F0000F943846FEF718FDA969A8140143A961A2
:10180000A96901401F481291FFF75EFB0720000203
:10181000029000940194202003940494059406906F
:10182000184D0794089409940A94174828603422A4
:101830006946281DFEF76AFC0121A9872846E98729
:101840002038286460308180C18004774477403834
:101850002C66FFF7D1FA002202211920FEF768FF5B
:10186000286841684022114341601920FEF756FF65
:10187000012206492846FFF741FB002013B0F0BDC6
:101880000010024018020020003001400900002032
:1018900010B50168C968026C1180016C891C016473
:1018A000014640310A46C988491E0904090CD18005
:1018B00006D10122816A5203914202D10649C164D4
:1018C00010BD01684A6840239A434A60C18F0029CD
:1018D000F6D100F0B5F810BDDD18000808B50168B4
:1018E000CA686B461A801A884A6840239A434A603D
:1018F00000F0A6F808BD000070B501464031CD8863
:10190000012424030368026C012D0FD9DB681380C6
:10191000026C921C0264CA88921E92B2CA80012A8A
:101920000BD1026853682343536006E01D7B531CB0
:1019300003641570CA88521ECA80C98800290AD15A
:101940000122816A5203914201684A6804D122430C
:101950004A600649C16470BD40239A434A60C18F02
:101960000029F8D100F06CF870BD00007119000872
:1019700008B501680B7B6A4613701278826C521EA0
:10198000826408D14A6840239A434A60C18F002983
:1019900001D100F055F808BD10B5816B02680988C7
:1019A000D160816B891C8163C18F491E0904090CB8
:1019B000C18715D10122816A5203914205D1016884
:1019C0000A6801231B031A430A6001684A688023DE
:1019D0009A434A604621095A002901D100F030F8A3
:1019E00010BD10B5C38F0268816B022B07D3098825
:1019F000D160816B891C8163C18F891E05E04B1CFE
:101A0000836309781173C18F491EC1870904090CCA
:101A100015D10122816A5203914205D101680A68F9
:101A200001231B031A430A6001684A6880239A4312
:101A30004A604621095A002901D100F001F810BD81
:101A400070B50446006841682025A94341603221F1
:101A5000204600F090F8002802D0206E284320662F
:101A6000226890680121C043C30620464030002B05
:101A700007DB4177206E0221084320660A48906008
:101A800003E0226E002A04D041772046FFF7B2F926
:101A900070BD427F4177042A204602D0FFF738FB11
:101AA00070BDFFF7A9FA70BDEFFF000010B5044646
:101AB000006841686022914341603221204600F075
:101AC00023F8002803D0206E20210843206601213E
:101AD0005D20015520688168C943C90606D4216E7E
:101AE0000222114321660749816002E0206E00282E
:101AF00003D02046FFF77EF910BD2046FFF77CFAA1
:101B000010BD0000EFFF0000F3B504464068FF255C
:101B100001260535F60381B0A8420AD1A068B0427B
:101B200002D07111884204D120680168402291439B
:101B30000160002280212046029B00F0F3F820275C
:101B4000002811D16068A84213D1A068B04202D029
:101B5000790188420DD10321002249022046029BCF
:101B600000F08EF8002804D0206E38432066032051
:101B7000FEBD0020FEBD70B50E460B460321044697
:101B80000022C90200F07CF82025002807D1334646
:101B900000228021204600F0C5F8002803D0206EE6
:101BA00028432066032070BD70B50168C968026CC7
:101BB0001180016C891C016401464031CA88521EA3
:101BC00093B201225203CB80012B07D1836A934247
:101BD0000CD103681C6855102C431C60C98800296F
:101BE00004D1816A914202D10249C16470BDFFF7FC
:101BF0005DFF70BDF91B000808B50168CA686B4637
:101C00001A801A884A6860239A434A60FFF74EFF99
:101C100008BD000070B501680B7B016C4A1C0264B2
:101C20000B7001464031CA88521E93B20122520302
:101C3000CB80012B07D1836A93420CD103681C68C7
:101C400055102C431C60C988002904D1816A914237
:101C500002D10349C16470BDFFF728FF70BD0000C9
:101C6000651C000808B501680A7B69460A70097896
:101C7000816C491E816401D1FFF718FF08BD000087
:101C8000FEB51D4617460E460446FEF77DFB009046
:101C90003EE0032149028E4205D1002F03D1017B92
:101CA000684601710079681C32D0002D05D0FEF71E
:101CB0006BFB0099401AA8422AD320684168E022B1
:101CC000914341606068C11FFD390CD10121A068BA
:101CD000C903884202D04911884204D120680168B2
:101CE0004022914301600120A16A4003814208D152
:101CF00021680A680A4B1A400A6021680A68024390
:101D00000A60012040346077002020770320FEBD68
:101D1000206881683140B942BBD10020FEBD00007F
:101D2000FFDF0000F8B51D4616460F460446FEF7D5
:101D30002BFB009034E0681C32D0002D05D0FEF75C
:101D400023FB0099401AA8422AD320684168E02268
:101D5000914341606068C11FFD390CD10121A06829
:101D6000C903884202D04911884204D12068016821
:101D70004022914301600120A16A4003814208D1C1
:101D800021680A680A4B1A400A6021680A680243FF
:101D90000A60012040346077002020770320F8BDDE
:101DA000206880683840B042C5D10020F8BD0000EE
:101DB000FFDF000010B5FEF76BFCFFF7D1F900F074
:101DC0005DF810BD70B596B0032000900226012585
:101DD00010200996049001950395000300240AA998
:101DE00031C16846FEF73EFE0F9400210DA80E9605
:101DF0000D951094FEF704FD212011901394149476
:101E000011A8FEF799FCFEF7C9FD7D21C900FEF778
:101E100067F9FFF78DF90420FFF77CF916B070BD64
:101E2000134801680122114301604168114A1140C1
:101E300041600168104A114001600168012292046A
:101E40009143016041683F22120491434160C16A9D
:101E500009090901C162016BFF2214329143016338
:101E6000416B4908490041630021816070470000CF
:101E7000001002400CB8FF08FFFFF6FEF8B5092776
:101E80000121FF0649023846FEF772FA01250026B5
:101E90002F4C0128607804D0002816D0401E6070B6
:101EA0001EE0032801D2401CF9E7A078002806D1E3
:101EB0002078002805D02670A068401EA060A5707C
:101EC0000EE02570A068401CF8E7A078012806D134
:101ED0002078002811D02670A068401EA060A6704F
:101EE000012189023846FEF743FA0128E07808D03C
:101EF00000281AD0401EE07022E02570A068401C27
:101F0000ECE7032801D2401CF5E72079002806D130
:101F10002078002805D02670A068401CA06025719C
:101F20000EE02570A068401EF8E72079012806D150
:101F30002078002808D02670A068401CA060267178
:101F4000A0688008E060F8BD2570A068401EF5E735
:101F50000400002010B5818CC90707D001684A68C9
:101F600001235B049A43836A1A434A60818C890780
:101F700007D501684A6801231B049A43C36A1A43C0
:101F80004A60818C490707D501684A6801239B0490
:101F90009A43036B1A434A60818C090707D501688D
:101FA0004A680123DB039A43436B1A434A60818CDE
:101FB000C90607D50268916801231B039943836B07
:101FC00019439160818C890607D501688A680123CD
:101FD0005B039A43C36B1A438A60818C490612D50E
:101FE00003685A6801210905046C8A4322435A6038
:101FF000026C8A4207D10268516803235B0599434A
:10200000436C19435160818C090607D501684A6801
:102010000123DB04806C9A4302434A6010BD002117
:10202000C1660122603042720172084670470000AA
:10203000F8B504462369A268E6691A43636910216A
:102040003343002026681A4333680546364F3B4029
:102050001343336023685A6803263603B243E668A5
:1020600032435A60236AA26926681A43B3680B2771
:102070003F02BB431343B3602C4A126B9207920F8B
:1020800006D0012A08D0022A08D0032A07D101E08D
:10209000002104E0022102E0042100E008210122E5
:1020A000E369D203934220D100290CD002290DD03C
:1020B000042911D0082914D00125010909010007BC
:1020C000400F08432DE0FEF77DFC07E018486168EB
:1020D000FEF706F880B2F0E7FEF784FC4000616886
:1020E000F6E7012000046168F2E7002908D0022920
:1020F00009D004290DD008290FD001252846F8BDA4
:10210000FEF760FC07E00B486168FDF7E9FF80B26D
:1021100007E0FEF767FC6168F7E710466168FDF7C6
:10212000DFFF2168C860E9E7F369FFFF00100240A4
:102130000024F40000127A00F8B51D4616460F463A
:102140000446FEF721F93146264660360090002904
:1021500016D041E0681C13D0002D06D0FEF714F90C
:1021600001460098081AA8420AD92068016880220E
:1021700091430160206801682022914301601AE0C8
:102180002068C16938468843E4D12AE0681C23D01E
:10219000002D06D0FEF7F8F801460098081AA8426C
:1021A0001AD9206801688022914301602068026882
:1021B00020218A43026020680168FF220132914396
:1021C00001602068816849084900816001207072BF
:1021D000002030720320F8BD2068C169384688436A
:1021E000D4D00020F8BD02E008C8121F08C1002AA0
:1021F000FAD170477047002001E001C1121F002A88
:10220000FBD1704786B0FEF74BFAFFF7DBFDFFF717
:1022100023FA624D012211462846FEF7AEF8604CC3
:102220000121491CA142FCD3002201212846FEF7CE
:10223000A4F80220401CA042FCD3FFF74BFA012275
:1022400011462846FEF799F80221491CA142FCD309
:10225000002201212846FEF790F80220401CA042EF
:10226000FCD3FFF755FA012211462846FEF785F800
:102270000221491CA142FCD3002201212846FEF77D
:102280007CF80221491CA142FCD3FFF743FA01224A
:1022900011462846FEF771F80221491CA142FCD3E1
:1022A000002201212846FEF768F80221491CA142BC
:1022B000FCD3FFF77FFA012211462846FEF75DF8AE
:1022C0000221491CA142FCD3002201212846FEF72D
:1022D00054F80220401CA042FCD3324E324F3068EA
:1022E0003968884209D2012211462846FEF745F88E
:1022F000002202212846FEF740F8306839688842FB
:1023000009D9012202212846FEF737F800220121CF
:102310002846FEF732F830683968884209D1002231
:1023200002212846FEF729F8002201212846FEF75F
:1023300024F838686946020E30600A70020C0A718F
:10234000020A0A72194F08733B4601221848FEF729
:1023500065FF02202646401CB042FCD33B460122CA
:1023600001A91348FEF75AFF0220401CB042FCD3DB
:102370003B46012202A90E48FEF750FF0220401CF6
:10238000B042FCD33B46012203A90948FEF746FFB1
:102390000220401CB042FCD39FE70000000400482C
:1023A00040420F0014000020100000201027000001
:1023B0006801002000000000010203040102030480
:1023C00006070809E4230008000000203000000090
:1023D000E621000814240008300000205006000008
:1023E000F6210008000000000000000000000000CE
:1023F000FFFF0000000000000000000000000000DF
:1024000000127A0000000000000000000102030436
:0424100006070809AA
:04000005080000B13E
:00000001FF
