:020000040800F2
:1000000068050020C5000008CD000008CF000008EA
:1000100000000000000000000000000000000000E0
:10002000000000000000000000000000D1000008F7
:100030000000000000000000D300000825180008A0
:10004000D700000800000000D7000008D700000813
:10005000D7000008D7000008D7000008D700000824
:1000600000000000D7000008D7000008D7000008F3
:10007000D7000008ED180008D700000800000000B5
:10008000D70000080000000000000000D7000008B2
:1000900000000000D7000008D70000081513000872
:1000A000000000001518000800000000811C000876
:1000B0000348854600F02AF800480047B11C0008B4
:1000C000680500200448804704480047FEE7FEE733
:1000D000FEE7FEE7FEE7FEE791180008B100000822
:1000E00030B50B46014600202022012409E00D46D0
:1000F000D5409D4205D31D469540491B2546954058
:1001000040191546521E002DF1DC30BD064C01256C
:10011000064E05E0E36807CC2B430C3C98471034AF
:10012000B442F7D3FFF7C8FFFC1C00081C1D0008F1
:10013000F8B500238DE001249C40A44622407DD0E8
:100140004C68022C01D0122C0CD1DC08A40027181A
:100150003C6A5D07ED0E0F26AE40B4430E69AE401B
:1001600026433E6205685E000324B4400F79A54330
:10017000BF07BF0FB7402F4307604D68012D05D063
:10018000022D03D0112D01D0122D0ED18568CF681C
:10019000A543B7402F43876047686546AF430D7955
:1001A000ED06ED0F9D403D434560C568A5438C6855
:1001B000B4402C43C4604C68E40049D5284CA56980
:1001C00001263543A561A4699D0834400094254C5F
:1001D000AD002F19BC689D072E0F0F25B540AC430D
:1001E0000925ED06A84201D100250FE01E4DA842C9
:1001F00001D101250AE01D4DA84201D1022505E0EB
:100200001B4DA84201D1032500E00525B54025433B
:10021000BD60184C25684E689543F60300D515431C
:10022000256065684E689543B60300D51543656043
:10023000A5684E689543F60202D500E008E0154334
:10024000A560E5684E689543B60200D51543E560A4
:100250005B1C0A681446DC4000D06CE7F8BD000067
:10026000001002400000014000040048000800485F
:10027000000C00480004014042694A404261704756
:1002800001480068704700000000002070B5024679
:100290002032537D022B27D0537D122B24D0537D47
:1002A000222B21D0537D322B1ED0537D422B1BD0CD
:1002B000137D012B18D00123137502245475046893
:1002C00025689D432560046825681E03B5432560A5
:1002D000046825680D4325600068016819430160C2
:1002E00053750020107570BD022070BD10B50168F7
:1002F0008A69D243D3050122002B08DB0B68DB435C
:100300001B0604D4836B134383631302CB61016820
:100310008B69DB435B0509D40B68DB431B0605D403
:10032000836B082423438363E301CB6101688B69FA
:10033000DB439B0509D40B68DB431B0605D4836BA9
:100340000224234383632302CB61816B0B23194275
:1003500003D035210A5400F092F810BD70B505465F
:10036000006881692C46C94389072034002913DAC3
:100370008169C94309060FD58169C94349060BD56F
:100380008169C943890607D58169C943C90603D56F
:100390008169C943090709D401687A20884305D1D6
:1003A000607D322802D1284601F012F9286881695F
:1003B000C94389070FD58169C94309060BD58169EE
:1003C000C943490607D58169C943890603D58169AF
:1003D000C943C9060CD401687220884308D1607DE6
:1003E000122802D0607D522802D1284601F024F85C
:1003F00028688169C943490713D58169C94309063A
:100400000FD58169C94349060BD58169C94389065E
:1004100007D58169C943C90603D58169C94309075D
:100420000AD40068C0434006C00E05D1607D422852
:1004300002D1284601F082F828688169C94349073A
:100440000FD58169C94309060BD58169C94349069E
:1004500007D58169C943890603D58169C943C9069E
:100460000CD401687420884308D1607D222802D012
:10047000607D622802D1284600F05CFF70BD7047A5
:1004800070B5040006D025462035687D002600287A
:1004900002D005E0012070BD2E75204600F046F820
:1004A00002206875206801684908490001600F2131
:1004B0006068090688432168086120688268012114
:1004C000C9038A438260A068002807D0E268012A35
:1004D00001D021218902084321688860E068022850
:1004E00002D1216880024860206841680C4A1143AB
:1004F0004160616920690843A169090208432168D4
:10050000C860216AE06908432168086020680268C1
:1005100001210A430260A6636975002070BD0000D6
:1005200000800002704770477047704700B5006850
:10053000114987B088421DD1C020009012200121AE
:100540000190032002910491039069460B48FFF744
:10055000EFFD0B48C269012149050A43C261C06928
:100560000022084005900321172000F053F81720BF
:1005700000F046F807B000BD0054004000040048F9
:10058000001002407047704702480168491C016032
:10059000704700000000002010B5064801681022D6
:1005A00011430160002000F007F800F017F8002068
:1005B00010BD00000020024010B5044600F060F9B4
:1005C0007D21C900FFF78CFD00F06CFC0022214664
:1005D000501E00F01FF8002010BD000008B50748AD
:1005E00081690122114381618069104000220090DD
:1005F0001146501E00F00EF808BD00000010024029
:10060000C106C90E012088400149086070470000FA
:1006100000E100E010B501F0DBF810BDF8B50546CB
:1006200000682D4CC00342D5216A032000026A688D
:100630000140024091423AD0E16920040143E16166
:10064000E169264E014000913068A11508433060F1
:10065000FFF716FE074604E0FFF712FEC01B6428F2
:100660001BD83068C005F7D5206A03273F02226AED
:10067000B843012109040A432262226A8A432262A2
:10068000206280070ED5FFF7FBFD064607E0FFF767
:10069000F7FD811B1248814201D90320F8BD206A71
:1006A0008007F4D5206A6968B84308432062287837
:1006B000C00705D0206BA96880088000084320632C
:1006C0002878800605D5206B10218843E968084307
:1006D00020630020F8BD00000010024000700040C0
:1006E00088130000F8B5054662480E460068F02100
:1006F000C007C00F604CB04254D25E480268520836
:100700005200324302600068C007C00FB0426ED191
:100710002878800704D560688843A968084360602A
:100720002878C00728D06868012814D021680228DA
:1007300014D0890700295ADA6168890889000143C1
:100740006160FFF79DFD0646686801280ED04B4F9B
:10075000022817D021E021688903EBE78901E9E746
:10076000FFF78EFD801BB84201D961E0434F6068FE
:100770000007800F0128F3D16DE0FFF781FD801B9A
:10078000B84255D860680007800F0228F5D162E0B2
:10079000FFF776FD801BB8424AD860680007800FDB
:1007A000F6D158E02878800704D560688843A968A6
:1007B000084360602878C00740D06868012813D0DB
:1007C0002168022814D08907002942DA6168890863
:1007D000890001436160FFF753FD074668680128FF
:1007E0000ED0022818D025E021688903ECE730E01C
:1007F0008901E9E7FFF744FDC11B2048814217D872
:1008000060680007800F0128F4D117E0FFF738FD7A
:10081000C11B1A4881420BD860680007800F02286C
:10082000F4D10BE0FFF72CFDC11B1448814201D924
:100830000320F8BD60680007800FF3D10D48016800
:1008400049084900314301600068C007C00FB04249
:1008500001D00120F8BD2878400706D5606807213F
:1008600009028843E968084360600020FFF7A4FE9E
:100870000020F8BD00200240001002408813000054
:1008800010B500F021F805494968054A0906090F25
:10089000515CC8400349086010BD000000100240D0
:1008A000EC1C00080400002010B5FFF7E9FF044924
:1008B0004968044A4905490F515CC84010BD000011
:1008C00000100240EC1C000810B513A30FCB88B039
:1008D0006C460FC414A30FCB0FC417494A680C20F1
:1008E000134603401548042B02D0082B02D01448AD
:1008F00008B010BD93021B0F6C46E45CC96A04ABE0
:100900000907090F595CD20303D5FFF7E9FB6043E0
:10091000EEE70C486043EBE702030405060708090D
:100920000A0B0C0D0E0F1010010203040506070838
:10093000090A0B0C0D0E0F100010024000366E015C
:1009400000127A0000093D00F8B504460078DF4D3A
:10095000C0075FD068680007800F012807D068686B
:100960000007800F022809D16868C00306D52868EF
:1009700080034FD5606800287ED04BE028680126B0
:100980003604B04328602868B700B8432860FFF7F2
:1009900077FC009006E0FFF773FC0099411ACC4801
:1009A00081426AD828688003F5D4606801280AD09B
:1009B000002801D0052808D029682846B1432960BD
:1009C0002968B94307E0284603E0296828463943E7
:1009D0002960016831430160606800280DD0FFF78D
:1009E0004FFC0646BA4F04E0FFF74AFC801BB842B2
:1009F000D7D828688003F7D50CE0FFF741FC0646FE
:100A0000B34F04E0FFF73CFC801BB842C9D828680C
:100A10008003F7D420780127800700283DDA686832
:100A20000007800F07D068680007800F022809D1EF
:100A30006868C00306D42868800715D5E0680128D7
:100A40001AD111E0E0680028286817D038432860E0
:100A5000FFF716FC064604E0FFF712FC801B642833
:100A60009FD828688007F7D52868F821884321692E
:100A7000C9000843286010E025E1CCE040084000B0
:100A80002860FFF7FDFB064604E0FFF7F9FB801B3B
:100A9000642886D828688007F7D42078000721D5F5
:100AA000206A0028686A0ED038436862FFF7E8FBC6
:100AB000064604E0FFF7E4FB801B642898D8686AC8
:100AC0008007F7D50EE0400840006862FFF7D8FBCA
:100AD000064604E0FFF7D4FB801B642888D8686AC8
:100AE0008007F7D4207804264007002866DAE969F1
:100AF000B0060143E961E969014076480091016867
:100B0000821511430160FFF7BBFB009005E0FFF782
:100B1000B7FB0099401A64287DD86E480068C0056C
:100B2000F5D5286A400840002862286AB043286248
:100B3000FFF7A6FB009006E0FFF7A2FB0099411A21
:100B40006348814267D8286A8007F5D4A0680128E5
:100B50000BD0002801D0052809D0296A2846490869
:100B600049002962296AB14307E0284603E0296A5F
:100B7000284631432962016A39430162A06800288E
:100B80000ED0FFF77DFB009006E0FFF779FB0099A0
:100B9000411A4F4881423ED8286A8007F5D50DE0BA
:100BA000FFF76EFB009006E0FFF76AFB0099411A21
:100BB000474881422FD8286A8007F5D42078C0069C
:100BC00035D5606901280CD0401D686B24D03043B6
:100BD0006863686B400840006863FFF751FB064696
:100BE00022E0686B30436863686B38436863FFF7E3
:100BF00047FB064604E0FFF743FB801B64285BD8F5
:100C0000686B8007F7D5686BF8218843A169C90034
:100C1000084368630BE04FE0B0436863F3E7FFF716
:100C20002FFB801B642847D8686B8007F7D4606A65
:100C3000002846D069680907890F022943D0012698
:100C400036060228286805D0B0432860FFF718FB55
:100C5000044633E0B0432860FFF712FB074604E088
:100C6000FFF70EFBC01B642826D828688001F7D444
:100C7000E86A216B000900010843E862A16AE06AA2
:100C8000084369683D22120491430843686028685C
:100C900030432860FFF7F4FA044604E0FFF7F0FA67
:100CA000001B642808D828688001F7D509E0FFF701
:100CB000E7FA001B642801D90320F8BD28688001E9
:100CC000F5D40020F8BD0120F8BD0000001002405E
:100CD00088130000007000407047F8B50268536840
:100CE00091684C0605D4CC0703D05C0601D5C16CD5
:100CF00004E08C0704D51B0602D5016D8847F8BDBA
:100D0000FF2361331942FAD003464C064033002CCE
:100D100009DA5C7F032CF2D0046E04252C430466B0
:100D2000D468946800948D060124002D08DA056EBD
:100D3000254305669568009515684026B5431560FE
:100D4000C90506D5016E082211430166016889684C
:100D5000009101684A68E025AA434A605C77FFF782
:100D6000BBFFF8BDF8B5040006D025464035687FC6
:100D70000026002802D005E00120F8BD2E7720468D
:100D800000F058F802236B772068016840229143F5
:100D900001600722E0681202904201D9002101E0BF
:100DA000012109030F273F02B84202D0904200D030
:100DB000A662276B002F05D1904201D9236301E081
:100DC00001202063A26860686369104322691A43A6
:100DD00010430123A2695B021A401043E2691043E9
:100DE000226A1043A26A104322681060206B022816
:100DF00004D1206802689B001A430260626B606A3B
:100E0000A36910431B0C0427E2683B401A431043BC
:100E10000843216848602168E06A08612068C16968
:100E2000034A1140C1610120266668770020F8BDA1
:100E3000FFF7000000B50068114987B088421DD156
:100E40001048826981140A438261806908400590D4
:100E5000F0200090022001900021032003900291D5
:100E6000049109206946C006FFF762F900220221B9
:100E70001920FFF7CFFB1920FFF7C2FB07B000BD19
:100E8000003001400010024004220449042808698F
:100E900002D09043086170471043FBE700E000E098
:100EA00070470000094910B5401E884201D9012051
:100EB00010BD074C60610321081F00F089FC002071
:100EC000A06107202061002010BD0000FFFFFF008F
:100ED00000E000E010B5FFF7E3FF10BD704770477A
:100EE00070B502462032137E012B1BD001231376EE
:100EF00002245476046865687026B543656004680A
:100F000065680E68354365600468A5688026B5434A
:100F1000A5600068846849680C43846053760020AB
:100F2000107670BD022070BDF8B50D46040005D0E6
:100F300026462036707E002802D006E00120F8BD4B
:100F400000203076204600F03BF8022070762068C2
:100F50008168C908C9008160211D206800F0CEFCAD
:100F6000226890689369116A2F680743BC4612484B
:100F7000AF6903403F021F43A868104B3843EF6935
:100F800018403F020743EB6828693B432F6A000182
:100F90003F0338431843AA2399436B686D6967463A
:100FA0002D010D432B4397602168886120680362FF
:100FB000012070760020F8BDFCFCFFFF0303FFFF5B
:100FC00000B50068114987B088421DD11048826978
:100FD000C1140A4382618069084005900320000221
:100FE00000900020022102900390019104910920B9
:100FF0006946C006FFF79CF8002201210D20FFF78B
:1010000009FB0D20FFF7FCFA07B000BD002C0140E2
:1010100000100240704770B5044600680169002561
:10102000C9438907002915DBC168C943890711D461
:10103000E91E016101202076206880698007204632
:1010400002D0FFF7E7FF04E000F096F8204600F03A
:1010500094F8257620680169C943490717D4C16807
:10106000C943490713D40421C943016102202076F2
:10107000206880698005800F204602D0FFF7CAFFF4
:1010800004E000F079F8204600F077F82576206833
:101090000169C943090716D4C168C943090712D4B5
:1010A0000821C9430161042020762068C0698007B7
:1010B000204602D0FFF7AEFF04E000F05DF82046C6
:1010C00000F05BF8257620680169C943C90617D48A
:1010D000C168C943C90613D41021C943016108205E
:1010E00020762068C0698005800F204602D0FFF777
:1010F00091FF04E000F040F8204600F03EF825762D
:1011000020680169C943C90708D1C168C943C90733
:1011100004D1891E0161204600F030F82068016981
:10112000C943090609D4C168C943090605D4802109
:10113000C94301612046FFF7D1FE20680169C94318
:10114000490609D4C168C943490605D44021C943A9
:101150000161204600F013F820680169C94389063F
:1011600009D4C168C943890605D42021C943016156
:101170002046FFF7B4FE70BD704770477047704758
:10118000704770B502680446D0690121C307204644
:101190006030002B07D01368DB0504D51162E26EC6
:1011A0000A43E26641722268D36902259E0704233E
:1011B000002E07DA9668F60704D01562E26E1A432D
:1011C000E26641722268D669760707D59668F60707
:1011D00004D01362E26E2A43E26641722268D36948
:1011E00008251B07002B07DA9368DB0704D015627C
:1011F000E26E2A43E2664172E06E002802D0204689
:10120000FFF7BEFF2068C169890609D5006880061E
:1012100006D5204600F031FC2068816929438161B0
:101220002068C169090605D50068000602D5204678
:1012300000F0EEFC2068C169490605D5006840064B
:1012400002D5204600F001FC70BD70B5040005D049
:1012500025466035687A002802D006E0012070BD7E
:1012600000202872204600F027F8022068722068CB
:101270000168490849000160204600F045FC01284A
:10128000EDD0606A002802D0204600F071FB206893
:1012900041680922D20291434160206881682A2274
:1012A000914381602068016801221143016020465A
:1012B00000F0C3FB70BD000000B50068124987B0A4
:1012C00088421ED111488269012189030A43826143
:1012D0008069084005900C200090022001900121B7
:1012E000032003900291049109206946C006FEF78D
:1012F0001FFF002201211B20FFF78CF91B20FFF7A5
:101300007FF907B000BD0000003801400010024026
:101310007047704710B50648006880694005400F67
:10132000034802D0FEF7E2FF10BDFFF717F810BD2B
:1013300018000020F8B5054604462035287D012810
:1013400014D001212975206882690026D2435207F2
:10135000002A0DDB416A606A421C62620170208DC6
:10136000401E2085608D401E608560E00220F8BD33
:101370008269D24313064022002B21DB218D0029F4
:101380001AD1618D002917D040688105608D890DC3
:10139000FF28009606D99304FF22204600F068F942
:1013A000FF2007E0608D0123C2B25B06204600F0FB
:1013B0005FF9608D20853AE02E75A06B104332E016
:1013C0008369DB435B0608D4618D0029F4D1416851
:1013D000012292031143416029E08269D2439206BF
:1013E00017D40268F4239A43026022682020D06157
:1013F000206842680F4B1A40426069752E75687DFF
:101400006228204602D0FFF78DF810E0FFF78CF835
:101410000DE08169C943C90609D41021C1612E7547
:10142000A06B04210843A0632046FFF728F82E751F
:101430000020F8BD00E800FEF8B50546044620355A
:10144000287D012814D00121297520688269002691
:10145000D2439207002A0DDB616A4A1C6262097856
:101460008162208D401E2085608D401E608560E079
:101470000220F8BD8269D24313064022002B21DBF3
:10148000218D00291AD1618D002917D0406881056E
:10149000608D890DFF28009606D99304FF2220460F
:1014A00000F0E6F8FF2007E0608D0123C2B25B0682
:1014B000204600F0DDF8608D20853AE02E75A06BA7
:1014C000104332E08369DB435B0608D4618D002959
:1014D000F4D14168012292031143416029E08269FD
:1014E000D243920617D40268F2239A43026022681C
:1014F0002020D061206842680F4B1A404260697515
:101500002E75687D5228204602D0FFF70CF810E0B7
:10151000FFF70BF80DE08169C943C90609D4102112
:10152000C1612E75A06B04210843A0632046FEF71D
:10153000A6FF2E750020F8BD00E800FE70B5044639
:101540002034217D012912D00122227501688B6986
:101550000025DB43DB06002B0BDB1022CA6125755F
:10156000816B042211438163FEF789FF2DE0022085
:1015700070BD8B69DB431B0702D40820C86124E0DF
:101580008B69DB435B070BD44A6A416A4B1C43629D
:101590000A70018D491E0185418D491E418514E067
:1015A0008B69DB439B0610D40B68FC26B3430B60AE
:1015B00001684B680126F60333434B600368202122
:1015C000D96162752575FEF7DDFF2575002070BDB8
:1015D00070B504462034217D012915D001222275E1
:1015E00001688B690025DB43DB06002B10DB438D94
:1015F0001022002BCA6109D0816B04221143816340
:101600002575FEF73CFF2FE0022070BD25752BE00D
:101610008B69DB431B0702D40820C86124E08B6977
:10162000DB439B0611D40B68FE26B3430B600168B5
:101630004B680126F60333434B6003682021D961D0
:1016400062752575FEF79FFF0EE08A69D243920707
:101650000AD4428D002A07D0426A531C4362127892
:101660008A62418D491E41852575002070BD0000AC
:1016700070B50568049C68688905890D1204044EDC
:1016800011431943304021430143696070BD00009C
:10169000009800FC00B5124887B042690121890515
:1016A0000A43426142690A400592426949110A436C
:1016B000426142690A400592426949000A43426117
:1016C000406908400590032000900120019000200F
:1016D0000290039069460348FEF72AFD07B000BD5B
:1016E000001002400004004810B50B480949016091
:1016F0000A494160002181600161416181610122EB
:10170000C161C2600162FEF7BBFE00210248FEF724
:10171000BDFD10BD00540040180000200E0900203F
:1017200010B50C480A4901600021416081600161E7
:10173000416181610722016212024162C2608162DD
:101740000A220163C2624163FFF70CFB10BD000077
:10175000003001405400002010B50F490F488CB0F4
:10176000002412C0046044608460C46001200090C2
:10177000019402900394069004940594079469469A
:1017800008940648FFF7D0FB099409A903480A9476
:10179000FFF7A6FB0CB010BD002C0140B8000020E4
:1017A00010B50A48084901604B21490241600021F7
:1017B0008160C16001618161C1610C22016242618D
:1017C0004162FFF742FD10BD00380140F4000020E7
:1017D0008307FF22DB0E9A408907090E99400028F3
:1017E0000BDA0007000F0838830808489B00181818
:1017F000C36993430B43C3617047830804489B004C
:101800001B181868904308431860704700ED00E00B
:1018100000E400E010B50248FFF75FFA10BD0000D9
:101820005400002010B5FEF7AFFEFFF753FB10BDCC
:1018300070B596B00320009002261020099601256D
:1018400004900003002401950A9003950B940C94D6
:101850006846FFF779F80F9401210DA80E960D95B3
:101860001094FEF73FFF212011901394149411A8B7
:10187000FEF7D4FEFFF704F87D21C900FEF730FC27
:10188000FFF710FB0420FFF7FFFA16B070BD000051
:10189000134801680122114301604168114A114057
:1018A00041600168104A1140016001680122920400
:1018B0009143016041683F22120491434160C16A33
:1018C00009090901C162016BFF22143291430163CE
:1018D000416B490849004163002181607047000065
:1018E000001002400CB8FF08FFFFF6FE10B50248DA
:1018F000FFF791FB10BD0000B800002070B5026832
:10190000164B174D984201D0A84204D114467026B8
:101910004A68B4432243134C134E984208D0A8425D
:1019200006D0124DA84203D0A04201D0B04204D14B
:1019300003252D02AA43CD682A4302608A68C26249
:101940000A688262984203D0A04201D0B04201D11D
:10195000096901630121416170BD0000002C014053
:1019600000040040004401400048014000200040C5
:1019700010B5818CC90707D001684A6801235B0450
:101980009A43836A1A434A60818C890707D50168A4
:101990004A6801231B049A43C36A1A434A60818C34
:1019A000490707D501684A6801239B049A43036BE2
:1019B0001A434A60818C090707D501684A680123E8
:1019C000DB039A43436B1A434A60818CC90607D5EF
:1019D0000268916801231B039943836B194391604B
:1019E000818C890607D501688A6801235B039A43C5
:1019F000C36B1A438A60818C490612D503685A6802
:101A000001210905046C8A4322435A60026C8A4210
:101A100007D10268516803235B059943436C19435E
:101A20005160818C090607D501684A680123DB04EF
:101A3000806C9A4302434A6010BD0021C1660122B6
:101A40006030427201720846704710B501680A683A
:101A500040239A430A60014660314A7A322A0AD00A
:101A6000026893685B085B00936001224A72FFF78B
:101A700050FC002010BD2222F8E770B5014640312D
:101A8000034660338A8B5C7A222C04D05C7A322C39
:101A900001D0022070BD012584682D03AC4202D123
:101AA0000469002C0DD00468A48C1440426D551CB0
:101AB000456514704A8B521E1204120C4A8309D0D9
:101AC0001EE00568446DAD8C15402580426D921C6A
:101AD0004265EFE701680A682024A2430A60597A48
:101AE00032290FD001680A68E400A2430A60016845
:101AF0008A68520852008A6001215972FFF708FC77
:101B0000002070BD1221F8E7F8B504462369A268E9
:101B1000E6691A43636910213343002026681A439B
:101B200033680546364F3B401343336023685A6899
:101B300003263603B243E66832435A60236AA26939
:101B400026681A43B3680B273F02BB431343B360B5
:101B50002C4A126B9207920F06D0012A08D0022A53
:101B600008D0032A07D101E0002104E0022102E0AD
:101B7000042100E008210122E369D203934220D12D
:101B800000290CD002290DD0042911D0082914D025
:101B90000125010909010007400F08432DE0FEF768
:101BA00083FE07E018486168FEF79AFA80B2F0E712
:101BB000FEF78AFE40006168F6E7012000046168D4
:101BC000F2E7002908D0022909D004290DD00829FC
:101BD0000FD001252846F8BDFEF766FE07E00B484A
:101BE0006168FEF77DFA80B207E0FEF76DFE61687E
:101BF000F7E710466168FEF773FA2168C860E9E705
:101C0000F369FFFF001002400024F40000127A0084
:101C1000014660314A7A122A04D0497A322901D029
:101C200002207047014640314A8A002A12D001231F
:101C300082681B039A4202D10269002A15D0C26C45
:101C4000531CC364006812780285488A401E48828B
:101C50000020704701680A6880239A430A60006880
:101C60000168402211430160F2E7C26C03681288E8
:101C7000D205D20D1A85C26C921CC264E5E7000041
:101C800010B50248FFF77DFA10BD0000F4000020F7
:101C900002E008C8121F08C1002AFAD17047704735
:101CA000002001E001C1121F002AFBD17047000093
:101CB000FEF772FCFFF7BCFDFFF7ECFCFFF714FD2D
:101CC000FFF72EFDFFF748FDFFF76AFD054E064DB5
:101CD00001213046FEF7D0FA2C460221491CA142D0
:101CE000FCD3F5E70004004840420F00000000006C
:101CF0000102030401020304060708091C1D000871
:101D00000000002018000000901C0008341D00088E
:101D10001800002050050000A01C00080000000072
:101D200000127A000000000000000000010203041D
:041D30000607080991
:04000005080000B13E
:00000001FF
